:020000040800F2
:10000000C0A0002091020008F56C000829610008DA
:10001000616A0008291D0008F17B0008000000004B
:10002000000000000000000000000000B1700008A7
:10003000DF23000800000000136E000801740008B0
:10004000AB020008AB020008AB020008AB020008DC
:10005000AB020008AB020008AB020008AB020008CC
:10006000AB020008AB020008AB020008ED2200085A
:10007000AB020008AB020008AB020008AB020008AC
:10008000F9220008AB020008F51A0008391D000823
:100090002D1D0008AB020008AB020008F125000886
:1000A000AB020008AB020008AB020008AB0200087C
:1000B000AB020008AB020008AB020008AB0200086C
:1000C000AB020008AB020008AB020008AB0200085C
:1000D000AB020008E57B0008AB020008AB02000899
:1000E000AB020008AB020008AB020008AB0200083C
:1000F000AB020008AB020008AB020008AB0200082C
:10010000AB020008AB020008AB020008AB0200081B
:10011000AB020008AB020008AB020008A97400089B
:10012000AB020008AB020008AB020008AB020008FB
:10013000AB0200080000000000000000AB02000855
:10014000AB020008AB020008AB020008AB020008DB
:10015000AB020008AB02000805230008AB02000850
:10016000AB020008AB020008AB020008AB020008BB
:10017000AB020008AB020008000000000000000015
:10018000AB020008AB02000800F002F800F070F8C3
:100190000AA090E8000C82448344AAF10107DA45E2
:1001A00001D100F065F8AFF2090EBAE80F0013F0C4
:1001B000010F18BFFB1A43F00103184798C900004C
:1001C000B8C900000A444FF0000C10F8013B13F0CE
:1001D000070408BF10F8014B1D1108BF10F8015BA0
:1001E000641E05D010F8016B641E01F8016BF9D193
:1001F00013F0080F1EBF10F8014BAD1C0C1B09D1EA
:100200006D1E58BF01F801CBFAD505E014F8016B5B
:1002100001F8016B6D1EF9D59142D6D370470000ED
:100220000023002400250026103A28BF78C1FBD8FF
:10023000520728BF30C148BF0B607047662909F0DC
:100240000982642900F08481002070471FB509F0FD
:100250004DF99DE8030000F0D1FA00F0B7FD04006D
:100260000020002108F06CFFE0601FBD10B510BD3C
:1002700000F0CAFE1146FFF7E9FF07F0A9FD00F004
:10028000E8FE03B4FFF7F2FF03BC00F05FFF0000DD
:100290000948804709480047FEE7FEE7FEE7FEE71A
:1002A000FEE7FEE7FEE7FEE7FEE7FEE70448054956
:1002B000054A064B70470000997400088901000840
:1002C000C0400020C0A00020C0600020C06000200E
:1002D0009FED1A1AF5EE000A40EE010ABDEEE00AA3
:1002E000F5EEC00A10EE100AF1EE10FA38BF401E0B
:1002F00000EE100A1349F7EE001AB8EEC00A30EE0D
:10030000C00ADFED0F0A20EE200AFCEEC00A10EE54
:10031000900AC0F3080000EE900A01EB8000F8EEAE
:10032000600A90ED011A70EE600A90ED000A71EE1D
:10033000E01A21EE800A00EE810A704783F9223E1E
:1003400000000044BCC20008B5EEC00AF1EE10FA8D
:1003500007D2DFED1E0AB4EEE00AF1EE10FAA8BFF4
:100360007047DFED1B0AB5EEC00A60EE200ABDEE55
:10037000E01A11EE100AF1EE10FA38BF401E00EE3E
:10038000100A1549F7EE001AB8EEC00A30EEC00A9E
:10039000DFED100A60EE200ABCEEE00A10EE100A53
:1003A000C0F3080000EE100A01EB8000B8EE400A2E
:1003B00090ED011A70EEC00A90ED000A71EEE01A9D
:1003C00021EE800A00EE810A70470000CD024CB495
:1003D00083F9223E00000044BCC2000870B5064606
:1003E00000F0F0F9056806F10B0020F00704B442B4
:1003F0009CBF002070BD2B466A68BAB11068A0424D
:1004000010D304F1080188423CBF5068586007D3FC
:100410005168101941601168091B0160586014602F
:10042000101D70BD13465268002AE7D121462846A8
:1004300000F0D0F90028DED170BD53EA020C00F0C4
:1004400069802DE9F04B4FF00006002B1FBFB3FA77
:1004500083F503FA05F424FA05F65E4012BF16434D
:10046000B2FA82F502FA05F4C5F120051EBF22FAA0
:1004700005FC44EA0C04203556EA044C4FEA1444C7
:1004800018BF641C4FF000084FF00009904271EB58
:10049000030C39D3002919BFB1FA81F701FA07F625
:1004A000B0FA80F700FA07F6C7F120071EBF20FA5E
:1004B00007FC46EA0C062037B6FBF4FCA7EB050761
:1004C000103F07F01F0BCBF120060CFA0BFB2CFAA8
:1004D00006F644BFB3460026202FA4BF5E464FF069
:1004E000000B5BEA060C08BF4FF0010B19EB0B0980
:1004F000ABFB027C48EB0608C01B06FB02CC0BFBE7
:1005000003CC71EB0C01C1E70B460246414648465D
:10051000BDE8F08B13B54FF000004FF00001AFF3D2
:100520000080BDE81C4070470FB41CB5074B06AAFD
:100530007B4469460090059800F02BFC002069463A
:1005400000F03AFC1CBC5DF814FB000085080000BC
:100550002DE9F0410646002410687529314616A59C
:1005600010D0AFF30080002802DA404213A507E064
:1005700031688A0701D512A502E0490704D511A503
:10058000012401E0AFF3008000210A2206F12407D4
:1005900009E0B0FBF2FCB0FBF2F302FB1C003030D0
:1005A00078541846491C0028F3D123462A46304681
:1005B000BDE8F04100F07FB9000000002D00000010
:1005C0002B000000200000002DE9F0474FF0000A4A
:1005D00089460446C0F820A02046E16888470028E4
:1005E00076D0252806D0D4E901219047206A401C06
:1005F0002062F1E7E168204600258847C4F81CA086
:1006000006460027C4F818A02A2E09D0304607F065
:100610009BFB38B304EB8708303EC8F8186019E03C
:1006200059F8041B204604EB87029161E168884772
:10063000012F064618D1E069002820DA25F02005B0
:100640001DE0D8F8180000EB800006EB40003038C1
:10065000C8F818002046E1688847064607F074FB92
:100660000028EED1012F0AD02E2E08D12046E168B5
:1006700088477F1C0646022F45F02005C4DBA06991
:10068000002803DA404245F00105A061E80701D0E7
:1006900025F01005B6B1A6F14100192802D8203680
:1006A00045F400654A463146204625604D46FFF731
:1006B000C5FD58B1012806D0ED1D25F0070000F159
:1006C000080989E704E005F1040985E730468AE76F
:1006D000206ABDE8F0874FF000020429C0F01280C4
:1006E00010F0030C00F01B80CCF1040CBCF1020FE5
:1006F00018BF00F8012BA8BF20F8022BA1EB0C01BA
:1007000000F00DB85FEAC17C24BF00F8012B00F8AF
:10071000012B48BF00F8012B70474FF0000200B5D5
:10072000134694469646203922BFA0E80C50A0E814
:100730000C50B1F12001BFF4F7AF090728BFA0E8C2
:100740000C5048BF0CC05DF804EB890028BF40F88E
:10075000042B08BF704748BF20F8022B11F0804FD0
:1007600018BF00F8012B704710B5044610F0030FB6
:1007700008BF11F0030F40F015804FF0013E121F2B
:10078000C0F20E8051F8043BA3EB0E0C2CEA030CD4
:100790001CEACE1C08BF40F8043BF0D0A1F10401D4
:1007A00002F10402521E08DB11F8013B002B00F895
:1007B000013BF7D11146FFF78EFF204610BD704771
:1007C000704770470048704764400020704770478A
:1007D0007047704738B504460A4600206946AFF3B3
:1007E0000080002808BF38BD02460099204600F06E
:1007F000F1FA012038BD012000F0FEBBF8B5AFF3DF
:100800000080054600200C46102000BF0646A819AF
:10081000A0420DD9324669460020AFF300800700A0
:1008200008BF00F0E9FB0098A04218BF0546C419B4
:10083000FFF7C8FF05600746F01D20F007004619C6
:10084000284600F00AF8B44208BFF8BDA21B3146A2
:100850003868BDE8F84000F0BDBA00210160C0E989
:10086000011070471020704770B50446051FFFF750
:10087000A9FF0068002C14BF446870BD002C18BF8D
:10088000AC423CBF20466468F8D301680A18AA420B
:1008900018BF456003D12A680546114401602868E5
:1008A0004119A1421CBF6C6070BD6168696021681C
:1008B0000844286070BD2DE9F0470D4699469246E0
:1008C000044600F124080168880604D5E06921F097
:1008D0001001216000E00120A84201DD471B00E07B
:1008E0000027A1697A1902EB0900081AA061207893
:1008F000C00602D42046AFF30080002608E0D4E909
:1009000001211AF806009047206A401C761C2062DC
:100910004E45F4DB2078C0060AD52046AFF30080B0
:1009200006E0D4E9012130209047206A401C206273
:10093000381EA7F10107F4DC07E0D4E9012118F81B
:1009400005009047206A401C2062281EA5F1010581
:10095000F3DC2046AFF300802078000602D50220A9
:10096000BDE8F0870120FBE770472DE9FF4F0C46FB
:100970001E464FF0FF378BB0D2E90001DDF86080F2
:100980000A908A46C1F30A5505B93D46002108463A
:1009900008F050FEBAF1000F00F4400005DA00EB59
:1009A00080004FF4400101EA50004FEA9059B9F13C
:1009B000010F00DDB9460A9850EA4A000ED044F60D
:1009C0001050A5F2FF3545432F14B8F1000F1ED08B
:1009D0007542291E1EDDC9F100021CE0B8F1010FAD
:1009E0004FF0000001D0302103E0F24305E0215434
:1009F000401CB042FBDB30460022002121540B9901
:100A0000C1F80880C1E900200FB0BDE8F08FBD1B20
:100A10006D1CDEE74A4600DA694206A800F07AFA61
:100A200006AB93E8070003AB83E8070050460A993A
:100A300000F021FC8DE80700A0F500501F38009061
:100A40000398002D0ADD42F21F014A4608440023A4
:100A500003A90390684600F08AFE09E0A0F5005063
:100A60004A461F38002303A90390684600F094FE0D
:100A70008DE807000004000C03D04FF0FF30410860
:100A800000E01046B8F1000F03D000220092154696
:100A90001EE0751E05D400F0B7F9303262556D1EA8
:100AA000F9D5B3460122084302D000227F1C04E09E
:100AB0002078302801D100227F1E002A099784D097
:100AC0001DE0112D07DA00F09FF9303262556D1CE0
:100AD00050EA0102F5D1084302D00098C8B10EE0F7
:100AE0000021681E05E0235C625C63542254401EB2
:100AF000491C8142F7DBAB46A81B401E0990002031
:100B000004F80B000B98099AC0F80880C0E9002B84
:100B10007AE711264FF0000857E72DE9F04F884695
:100B20000446D21D22F0070191B0D1E90001CDE9C0
:100B30000A0107F0E1F802460B98C00F01D02D2002
:100B400007E02068810701D52B2002E0202101EA7F
:100B5000C000032A099001D0072A05DB034641465D
:100B6000204600F097F90BE12078800601D5E06976
:100B700000E00620B8F1650F814606D0B8F1660F97
:100B800018D0B8F1670F70D131E00020B9F1110F22
:100B9000009001DB112301E009F101030AAA01A978
:100BA0000CA8FFF7E2FEDDE90C70002609F1010553
:100BB000834647E001204B4600904FF000470AAAC9
:100BC00001A90CA8FFF7D1FEDDE90DB00C995D4637
:100BD000002610B909F101000D18B9EB050003D486
:100BE000C0F1FF3609F10105A5EB09002BE0B9F1D1
:100BF000010F01DA4FF001090020B9F1110F009047
:100C0000484601DD112300E003460AAA01A90CA809
:100C1000FFF7ABFEDDE90C704D46002683462078D9
:100C200000070AD4AB4500DA5D4601A8012D04DDBA
:100C3000411911F8011C302907D04F4502DA17F18C
:100C4000040F04DA012082460FE06D1EEEE7002F4C
:100C500002DCED1B3E4403E0781CA84200DD7D1C55
:100C6000B81B00F1010A4FF000472078000703D4B9
:100C7000AA4501DB4FF0FF3A0021B7F1004F0DF11B
:100C800043088DF8431024D002202B23002F01DAD3
:100C90007F422D230A21021EA0F1010000DC5FB17A
:100CA00097FBF1FC97FBF1F201FB1C7C17460CF162
:100CB000300C08F801CDEEE7A8F10100037021889F
:100CC000090501D5452100E06521A0F1010800F8E2
:100CD000011C09980FA9A1EB0807FF1D00B1012015
:100CE000411901EBEA70A1693844081A401EA0615D
:100CF0002078C00602D42046AFF30080099828B1BE
:100D0000D4E901219047206A401C20622078C00667
:100D100022D52046AFF300801EE0002E04DBB34551
:100D200002DD01A8805D00E03020D4E90121904778
:100D3000206A401C2062761CAAF101005FEA000ACA
:100D40000AD100F043F8C0680168405CD4E9012191
:100D50009047206A401C2062281EA5F10105DCDCBA
:100D600007E0D4E9012118F8010B9047206A401CE4
:100D70002062381EA7F10107F3DC2046AFF30080A4
:100D8000032011B041E6000001694A1C02610878A5
:100D9000704700B58FB0CDE90131002105910549BB
:100DA0007944CDE9031011466846FFF70DFC0FB0FA
:100DB00000BD0000E5FFFFFF0A6802F8010B0A60B2
:100DC00070470000004870475C40002000487047B2
:100DD0007C400020034640688C46002818BF8842AB
:100DE0003CBF03464068F8D318681844884207D0CF
:100DF0000CF1030020F00700001D411A521A0146B1
:100E0000081D0A60FFF730BD30B5B0F10A024FEAA5
:100E1000900E71F100034EEA817EB0EB0E0061EBA3
:100E200091014FEA101E4EEA017E10EB0E0041EBDD
:100E300011114FEA102E4EEA016E10EB0E0041EB3D
:100E400011214FEA104E4EEA014E10EB0E0041EB1D
:100E50001141401841F100014FEAD00040EA4170D1
:100E60004FEAD10110EB80054FEA810444EA907407
:100E700044EB01046D1944EB0404521BA3414FF0F1
:100E8000000348BF0A3200D530BD401C41F10001CB
:100E900030BD00002DE9F0411F46044603260168DD
:100EA000072A01F4006004DB08B116A505E016A5C9
:100EB00003E008B115A500E015A521F010002060A1
:100EC000A069C01EA0610FB1401EA0612046AFF313
:100ED00000804FB1D4E9012138469047206A401C78
:100EE0002062C01C206206E0206AFAE7D4E90121F2
:100EF00015F8010B9047761EF8D22046AFF300801C
:100F0000BDE8F0814E414E006E616E00494E4600D4
:100F1000696E66002DE9F047814616468AB035486D
:100F200078440DC88DE80D0032487844801C03AC2D
:100F30000DC884E80D0041F69B300844372190FB32
:100F4000F1F290FBF1F5A5F1800501FB12041B3CC9
:100F500002D56442012000E00020DFF898A080461E
:100F60000027FA44AAF1BE0A0EE0E0070AD0324692
:100F7000684607EB470101230AEB810100F00CFCF6
:100F80008DE8070064107F1C002CEED1194F7F44C0
:100F9000AE3F19E0E80715D007EB04100DF1180A71
:100FA00090E80E008AE80E00C068F04201D198195E
:100FB00008903246012306A903A800F0EDFB03AB1D
:100FC00083E807006D10641C002DE3D14FF001038E
:100FD00032466946B8F1000F03A802D000F0C7FB03
:100FE00001E000F0D9FBC9E90001C9F808200AB006
:100FF000BDE8F08718BC000010B500F03FF8BDE870
:10100000104000F02FB870477546FFF7DBFEAE4684
:1010100005006946534620F00700854618B020B504
:10102000FFF744F9BDE820404FF000064FF00007FD
:101030004FF000084FF0000B21F00701AC46ACE880
:10104000C009ACE8C009ACE8C009ACE8C0098D46ED
:10105000704710B50446AFF300802046BDE810404D
:10106000FFF70FB9002801D000F070B8704710B535
:1010700000F0A4F8BDE81040FFF7F4BF10B5012858
:1010800005D0002103A000F07FF8012010BD09A1C8
:10109000F8E7000053494752544D454D3A204F75EB
:1010A00074206F662068656170206D656D6F727960
:1010B000000000003A2048656170206D656D6F7218
:1010C0007920636F72727570746564004FF0013C33
:1010D00050F8042B51F8043B9A4221D1A2EB0C03A7
:1010E000934313EACC1317D150F8042B51F8043B67
:1010F0009A4215D1A2EB0C03934313EACC130BD104
:1011000050F8042B51F8043B9A4209D1A2EB0C038E
:10111000934313EACC13DBD04FF00000704700BFBD
:10112000D01A01BAB1FA81F101F0180122FA01F0E6
:10113000CB40C1F12001DBB2C0B2C01A2CFA01F3DE
:10114000D11A914311EAC311E6D170470149182021
:10115000ABBEFEE7260002001FB584B000200A9C4B
:1011600006AB04AA02A90094AFF3008018B1DDE930
:10117000020108B010BD03482040FFF778FF0020AF
:101180000146F6E70000207C70B505460C460A20B3
:1011900000E06D1C00F068F835B128780028F8D11F
:1011A00002E0641C00F060F814B120780028F8D147
:1011B000BDE870400A2000F057B8000010B50228C2
:1011C00003D0410103D50DA112E0002010BD0101A3
:1011D00001D50FA10CE0C10001D511A108E08100EB
:1011E00001D512A104E0400001D513A100E00021C7
:1011F00015A0FFF7C9FF012010BD0000496E766100
:101200006C6964204F7065726174696F6E000000D4
:10121000446976696465204279205A65726F0000DE
:101220004F766572666C6F7700000000556E6465DE
:1012300072666C6F77000000496E65786163742098
:10124000526573756C7400005349474650453A2007
:1012500041726974686D657469632065786365704F
:1012600074696F6E3A20000008B569468DF8000079
:101270000320ABBE08BD5FEA400C08BF91F0000F31
:101280004FEA8C234FEAC12243EA51514FEA1C50E6
:1012900018BF00F5F0404FEA300018BF41F00041A0
:1012A0005FEA6C5C00F02980BCF1FF3F08BF40F0B2
:1012B00080407047130C06BF12044FF0100C4FF023
:1012C000000C130E04BF12020CF1080C130F04BF24
:1012D00012010CF1040C930F04BF92000CF1020CEC
:1012E000D30F04BF52000CF1010C11464FF0000265
:1012F000A0F11F00A0EB0C00704711F0004F08BFD9
:10130000704731F000413FF4D5AF0B0C06BF090424
:101310004FF0100C4FF0000C0B0E04BF09020CF143
:10132000080C0B0F04BF09010CF1040C8B0F04BF58
:1013300089000CF1020CCB0F04BF49000CF1010C29
:10134000CCF12003A0EB0C0022FA03F302FA0CF21A
:1013500041EA030100F10100704720F07F4C80EA70
:10136000030023F07F47ACEB070303F57C5300F049
:10137000004003F1FF032DE980494FEA154B09B402
:101380004FEA144325EA0B4E24EA03480FF20426E1
:1013900006EB132749083E785FEA320203FB066733
:1013A000C7F5000707FB06F64FEA54374FEAD64663
:1013B00006F1020607FB066CCCF1005C4FEA1C4705
:1013C0002CEA074C07FB06F40CFB06F504EB15466C
:1013D0004FEA961634BF00204FF000404FEAD13755
:1013E00006FB07FC4FEA1C4C0CFB0BF7D21B03FB64
:1013F0000CF761EB07010CFB0EF7B0EB074072EB4B
:1014000017420CFB08F734BFA2EB0742B2EB0742CE
:1014100061EB17414FEA0C444FEA910706FB07FCCA
:101420004FEA1C4C0CFB0BF7B0EBC74072EB57328A
:1014300003FB0CF734BFA2EBC742B2EBC74261EB30
:1014400057310CFB0EF7B0EBC70072EB57720CFB79
:1014500008F734BFA2EBC702B2EBC70261EB5771CA
:10146000039F4FEA816141EA921104EBCC044FEAF9
:10147000D1374FEA826206FB07FC42EA90124FEA3C
:1014800080604FEA1C4C0CFB0BF7D21B03FB0CF7E4
:1014900061EB07010CFB0EF7B0EB074072EB174254
:1014A0000CFB08F734BFA2EB0742B2EB074261EB3B
:1014B00017414FEA8C554FEA910704EB9C2406FB39
:1014C00007FC4FEA1C4C0CFB0BF7B0EBC74072EB70
:1014D000573203FB0CF734BFA2EBC742B2EBC74253
:1014E00061EB57310CFB0EF7B0EBC70072EB577294
:1014F0000CFB08F734BFA2EBC702B2EBC70261EBEB
:10150000577115EB4C254FEA816141EA92114FEA80
:1015100082624FEAD13742EA901206FB07FC44F19F
:1015200000044FEA80604FEA1C4C0CFB0BF7D21B07
:1015300003FB0CF761EB07010CFB0EF7B0EB074068
:1015400072EB17420CFB08F734BFA2EB0742B2EB79
:10155000074261EB174115EB1C154FEA813141EA57
:1015600092414FEA823242EA90424FEA80304FEA9B
:101570000C7644F1000448EA03434EEA0B484FF06E
:10158000000EB2EB080C71EB030724BF624639462C
:101590004EEB0E0E4FF0000B0018524149414BEB41
:1015A0000B0BB2EB080C71EB03077BF1000B24BFB4
:1015B000624639464EEB0E0E4FF0000B00185241BA
:1015C00049414BEB0B0BB2EB080C71EB03077BF1C2
:1015D000000B24BF624639464EEB0E0E51EA02075D
:1015E00018BF46F0010616EB0E7655F1000254F1D5
:1015F000000103D5BDE88901BDE80088BDE8890187
:10160000BDE80048B619524141EB0101A3F10103C5
:10161000704780807F7E7D7C7B7A7978777676755F
:101620007473727171706F6E6E6D6C6C6B6A6A69D7
:101630006868676666656464636362616160605F71
:101640005F5E5E5D5D5C5C5B5B5A5A5959585857EA
:101650005756565555555454535352525251515052
:1016600050504F4F4F4E4E4D4D4D4C4C4C4B4B4BA5
:101670004A4A4A49494948484847474747464646EB
:101680004545454444444443434343424242424126
:101690004141002B9C4630D477002BD01CB54FEA3B
:1016A000370703B44FF010004FF01001BAF1000FEC
:1016B00006D0BCF1000FDCBF40F0080040F008018C
:1016C00007F0B8FF0FBCBDE810400BF1010BBBF1F8
:1016D000010F08BF5FEA170722BF12F1010211F1E3
:1016E00001014FF0004143F1000300F0004043EAE4
:1016F00000007047F9D35708D0E746EA064613F1D1
:10170000400F4FEA16461FDD13F1200FDFBF1643CF
:101710000A46002120335B42BED0C3F1200746EACF
:10172000064602FA07F74FEA164646EA0706C3F1ED
:10173000200722FA03F201FA07F721FA03F14FF02A
:10174000000342EA0702A7E746EA020646EA06461F
:101750004FEA164646EA0106BCBF46EA0646360C84
:101760004FF000034FF000024FF0000194E72DE925
:10177000804C9A46934670B491E8380007C831EA25
:10178000400C48BF34EA430C03D5FFF7E6FDFFF7F2
:1017900080FFF0BCBDE8008C2DE9804C9A46934652
:1017A00070B491E8380007C810F0804F08BF13F0FC
:1017B000804F03D100F005F8FFF76BFFF0BCBDE8E8
:1017C000008C20F07F4780EA030023F07F4C07EB7A
:1017D0000C03A3F57C5300F00040A3F1FE0392F04C
:1017E000000F00F0B38095F0000F00F077802DE936
:1017F00001494FEA11404FEA144621EA004800FB34
:1018000006FC24EA064708FB06F607FB08F800FB7F
:1018100007F718EB06484CEB164C4FEA124B18EB47
:1018200007484FEA15464CEB174022EA0B4E0BFBDC
:1018300006FC25EA06470EFB06F607FB0EFE0BFB31
:1018400007F71EEB064E4CEB164C4FF000061EEB56
:10185000074E4CEB174B18EB0B0840F1000018EB50
:101860000E0B58EB000840F100008F1A4FF00001FA
:101870003CBFC943661B14BFB5EB040C00213CBF41
:10188000C943F61B4FEA17444EEA8E0E27EA044579
:101890004FEA1C4704FB07622CEA074C05FB07F7DD
:1018A0000CFB05F604FB0CFC16EB074642EB17425B
:1018B00016EB0C4642EB1C421BEB060658EB0202F1
:1018C000414146EA9E0601D5BDE80189B61952415B
:1018D00041EB0101A3F10103BDE801894FEA144581
:1018E0004FEA114724EA054621EA074C05FB07F4B5
:1018F00006FB07F70CFB06F105FB0CFC11EB07419F
:1019000044EB17444FEA124711EB0C4144EB1C44E3
:1019100022EA074C05FB07F206FB07F70CFB06F66D
:1019200005FB0CFC16EB074642EB174216EB0C4688
:1019300042EB1C456A1854F1000148BF7047B619C4
:10194000524141EB0101A3F10103704795F0000FF3
:1019500037D04FEA11424FEA144721EA024624EAFF
:10196000074C02FB07F106FB07F70CFB06F402FB32
:101970000CFC14EB074441EB17414FEA154714EBFD
:101980000C4441EB1C4125EA074C02FB07F506FB22
:1019900007F70CFB06F602FB0CFC16EB074645EBC3
:1019A000174516EB0C4645EB1C42121951F100018C
:1019B00048BF7047B619524141EB0101A3F1010341
:1019C00070474FEA14454FEA114724EA054621EAD9
:1019D000074C05FB07F106FB07F70CFB06F24FF07F
:1019E000000605FB0CFC12EB074241EB174112EB22
:1019F0000C4251EB1C4148BF7047921841EB01016A
:101A0000A3F1010370470000D0ED020A90ED040A33
:101A10009FED031AF8EEE00A00EE810A704700001D
:101A2000DB0FC940024803490088401E0860704728
:101A30005C0000202C04004010B5044627480068D4
:101A400080B2A08100EE100A2088F8EE400A401E05
:101A500000EE100AB8EEC01A80EE810ADFED200A0F
:101A600020EE200A84ED040A94ED051A30EE410AB6
:101A700084ED060A10EE100A1A49884207D9A068B8
:101A8000401CA06030EE200A84ED060A0BE010EE48
:101A9000100A1549884206DDA068401EA06030EE9D
:101AA000600A84ED060A94F90400D4ED060A00EEFB
:101AB000100AB8EEC00A20EE200ADFED0C0A20EE74
:101AC000200A84ED070A0A4804F02FFB84ED070A78
:101AD00094ED040A84ED050A10BD000024040040C2
:101AE000DB0FC940000090C00000904000401C4641
:101AF00030000020014801F004BC00007C050020FB
:101B00004A494A6822F440324A604A6843681A43A4
:101B10004A6001684A6822F480724A6001684A6833
:101B2000036942EA03224A6001684A6822F040726F
:101B30004A6001684A6883681A434A6001688A6893
:101B400022F400628A6001688A68C3681A438A6066
:101B5000816A6FF07062D14214D001688A6822F005
:101B600070628A6001688A68836A1A438A600168C1
:101B70008A6822F040528A6001688A68C36A1A4300
:101B80008A6009E001688A6822F070628A600168F0
:101B90008A6822F040528A6001688A6822F0020254
:101BA0008A6001688A68037E42EA43028A6090F88C
:101BB000201089B101684A6842F400624A600168F5
:101BC0004A6822F460424A6001684B68426A521EC9
:101BD00043EA42324A6004E001684A6822F4006243
:101BE0004A600168CA6A22F47002CA620168CB6A5C
:101BF000828B521E43EA0252CA6201688A6822F44A
:101C000000728A6001688A6890F8303042EA4322A4
:101C10008A6001688A6822F480628A6001688A6842
:101C2000406942EA8020886070470000002301403C
:101C300070B506F011F8144C00256088401C80B285
:101C40006080B0F5FA7F02D300F01CFE6580A088AA
:101C5000401C0004000CA08006D005F0DBFD05F060
:101C6000C9FF04F0B5FAA580E088401C80B2E0808E
:101C7000322805D304F0F4FA04F0F4FE2070E58075
:101C80002089401C208170BDA800002010B5A8202C
:101C900006F076F81E4803F069FC00F0B1F8002168
:101CA0001C4803F037FD04211A4803F033FDFFF709
:101CB000B9FE0021184803F053FF0421164803F031
:101CC0004FFF0821144803F04BFF0021124803F096
:101CD0009FFB0421104803F09BFB08210E4803F0F2
:101CE00097FB04210D4803F03BFF0C210C4803F047
:101CF00037FF0C4801F0DCF90A480068416841F000
:101D00008001416004F0F8FFBDE8104004F0D6BE49
:101D1000940800204C080020BC0700200408002084
:101D2000DC0800207C050020FEE70000014801F0EF
:101D3000A5BD0000C4050020014801F09FBD0000C2
:101D4000C405002000B589B001AB02AA00210C48EF
:101D500001F011FD0B4903980A7890420DD10A4A0F
:101D60000320107000209DF8042040EA02209DF816
:101D700005201043488000F009F809B000BD0000BC
:101D8000C405002022050020200500201548DFEDB5
:101D9000160AB0F9020000EE100A1448B8EEC00AA4
:101DA00020EE200A80ED000A11490E48001D8A89A4
:101DB000028091ED070ADFED0F0A20EE200ABDEE4A
:101DC000C00A10EE101A41800B49DFED0C0A91EDAC
:101DD0000E0A20EE200ABDEEC00A10EE101A818015
:101DE00070470000220500201000203BF404002072
:101DF0005C000020EBC9184154040020CDCCCC433A
:101E000000B58BB001210991002007900891019045
:101E10000290039004900690059001A9054801F0F6
:101E200021FC044801F025FF0221024801F008FCD2
:101E30000BB000BDC40500202DE9FE43464C4749C8
:101E40002078002801D106220A706278012A02D087
:101E5000012804D00EE00120087020700AE0087804
:101E6000062802D0052803D004E00220207001E0FB
:101E70000320207020787327C8B1012835D04FF097
:101E80000008022842D003280FD13549354806F012
:101E900009FB282234A31146324806F053FA34498C
:101EA000304806F0FFFA84F80080BDE8FE8331A3D5
:101EB000142200212B4806F045FA32A328220021E3
:101EC000284806F03FFA33A33C220021254806F0BB
:101ED00039FA0A21CDE900171420029073230F224A
:101EE0007821204806F036FADFE71D491D4806F044
:101EF000D9FA2BA3282214211A4806F023FA03B09A
:101F00001B49BDE8F043174806F0CCBA1449154800
:101F100006F0C8FA282226A31146124806F012FA43
:101F20001349104806F0BEFA69204B26CDE9010698
:101F30004125034646226E2100950A4806F00AFA1A
:101F4000CDE901767323462278210648009506F0F4
:101F500001FA84F80080A8E764050020200500202D
:101F6000E1A00008200F00204661696C6564210033
:101F700088970008506C65617365207365742074E0
:101F8000686500006D6F746F72206672656520620F
:101F9000652D0000666F72652073746172740000B5
:101FA00043616C6962726174696E672E2E2E000047
:101FB00053756363656564210000000010B519491D
:101FC00001F17C0000F008F918B1174901200872EE
:101FD00010BD164805F0BEFB12487C3000F08EF8AC
:101FE00010487C3004F0EAFE0E4C7C3404F174009E
:101FF00094ED0D0A80ED010A94ED0E0A2C3080ED6F
:10200000010A2C3800F02AF984ED060A04F1A00038
:1020100000F024F984ED070A2046BDE8104004F0E2
:10202000ABB80000D4000020D80F00207C000020B6
:1020300010B50C4C0C48214602780C4800F0DCFA34
:1020400018B10B490120087210BD084894ED070A29
:10205000CC3080ED010A05F08BF90448A03080ED0A
:10206000000A10BD7C0000202C4000205001002000
:10207000E40F002070B5164C1648616800780A7F9E
:10208000002A02D0062818D115E0062815D2DFE86C
:1020900000F01E090C06030FC96A61600DE0896A31
:1020A00061600AE0096A616007E0496A616004E012
:1020B00001220A7701E000220A77074D18B9297832
:1020C000E278914201D004F04DFD2878E07070BDB7
:1020D00064050020A800002020050020064A53685F
:1020E00000E050605168086A0028FAD15068036225
:1020F0005962886A704700006405002090ED080A64
:1021000080ED0B0AD0ED090AB0EE001A00EE810A4C
:10211000DFED030A80EE201A80ED0C1A70470000F4
:10212000D9B3DD3F2DE9F04107460E461546302074
:10213000FEF754F90446132239462046FEF714FBF5
:102140000023E3746661A561237705484168216235
:102150006362E462886AA0624C622046BDE8F08156
:10216000640500202DE9F04107460E461546302053
:10217000FEF734F90446132239462046FEF7F4FAF6
:102180000021E1746661A561217721626162E462E8
:1021900003484168A162CC622046BDE8F08100009E
:1021A000640500202DE9F04107460E461546302013
:1021B000FEF714F90446132239462046FEF7D4FAF6
:1021C0000021E1746661A561217721626162E462A8
:1021D000A4622046BDE8F08130B50A88A2F29C7363
:1021E000C92B0DD24B8840F29C74A34208D340F611
:1021F0006405AB4204D88B88A34201D3AB4201D91A
:10220000012030BD134BDC6B24B2A21A00EE102A61
:10221000F8EEC00A9FED100A60EE800AC0ED080AD1
:102220001A6C4C8812B2121B00EE902AF8EEE00AEB
:1022300060EE800AC0ED090A5A6C898812B2511A00
:1022400000EE901AF8EEE00A20EE800A80ED0A0A0D
:10225000002030BD00200140500A253D90ED000ACD
:10226000D0ED010A70EE600AC0ED050A90ED030A98
:10227000DFED1D1A20EE801A90ED070A01EE210A0B
:1022800080ED070A90ED081AF1EE411AB4EEE10A6A
:10229000F1EE10FA02D2B0EE610A06E0B4EEC10A25
:1022A000F1EE10FA01DDB0EE410A80ED070A90ED83
:1022B000021A01EE200A80ED0A0AD0ED090AB1EEF9
:1022C000601AB4EEC10AF1EE10FA02D2B0EE410A81
:1022D00006E0B4EEE00AF1EE10FA01DDB0EE600ABD
:1022E00080ED0A0A7047000017B7D138014801F0A5
:1022F0004DBD0000FC060020014801F047BD000074
:102300005C070020014801F041BD00006809002081
:102310000168CAB2103A1823B2FBF3F2064B9B5C79
:10232000C3656FF30901032A02D9091D816500E025
:102330008165806D704700009CC2000810B50146A1
:1023400000208A6A8B694FF0C074002B0ED0B3F561
:10235000005F1AD062B3012A2AD0022A28D0032AA9
:1023600003D1C96AC90100D5012010BD1AB1012AE3
:1023700006D0022AF9D1C96AC901F6D5012010BDDB
:10238000C96AA142FBD1012010BD52B1012A0AD075
:10239000022A06D0032AF7D1C96AA142F4D101204A
:1023A00010BD012010BDC96AC901FBD5012010BDB7
:1023B000012010BD30B50468256825F4802525600E
:1023C000046863608368402B04D0036899600068E8
:1023D000C26030BD03689A600068C16030BD70475C
:1023E0001CB504460B482821CDE9001004F12C004F
:1023F00081B228231022084805F0CCFF0748323468
:10240000A1B2436802B04622BDE81040024805F080
:1024100099BF000044C00008200F00206405002080
:102420001CB504460B482821CDE9001004F12C000E
:1024300081B228231022084805F0ACFF0748323447
:10244000A1B2436802B04622BDE81040024805F040
:1024500079BF00000CC10008200F00206405002097
:1024600000B587B0284805F069FE2849264806F0DF
:1024700019F8274827A1027804A8FEF755F826A3E3
:1024800012220021204805F05DFF04AB1222232117
:102490001D4805F057FF2148406806F071FF41ECE8
:1024A000100B1FA153EC102B01A8FEF73DF801AB58
:1024B00012223C21144805F045FF1BA3122269217A
:1024C000114805F03FFF19490F4805F0EBFF18A32D
:1024D00028220A210C4805F035FF17A337220A21CC
:1024E000094805F02FFF16A346220A21064805F0E9
:1024F00029FF16A337225021034805F023FF024885
:1025000005F0B8FF07B000BD200F0020A8AA000802
:10251000220500202564000030783000140F0020D0
:10252000252E316600000000560000008897000844
:102530004D6F746F72000000456E636F64657200CA
:102540005265736F6C7574696F6E000041425A007A
:102550001CB504460B482821CDE9001004F12C00DD
:1025600081B228231022084805F014FF07483734A9
:10257000A1B2436802B04622BDE81040024805F00F
:10258000E1BE0000D4C10008200F00206405002037
:102590001CB50B492822CDE900212C30044681B21C
:1025A00013461022074805F0F5FE0748A1B246225F
:1025B000436802B00348BDE8104005F0C3BE000008
:1025C0007CBF0008200F0020640500200648074952
:1025D0000278002A02D0408808607047096841806C
:1025E00001210170704700002C00002024040040ED
:1025F0004FF4807001F008BE70B506460C461546D3
:102600002046FFF719FA94F904307BB175B16B439A
:1026100000EE103AD4ED040AB8EEC00A20EE200A0B
:1026200005F09AFB86ED170A002070BD012070BDF1
:1026300072B6FEE70022002905D001291AD002292E
:102640001BD04FF440720E490B6823F440730B60AB
:102650000B6813430B600A6822F0F8020A600A68EC
:10266000022303EBC00002430A60086840F4803094
:10267000086070474FF48072E5E74FF40072E2E7BC
:10268000103C02401348016889050FD5016821F408
:1026900000710160016841F400610160016821F48A
:1026A00000610160016841F4007101600168490541
:1026B0000FD5016821F480610160016841F4805107
:1026C0000160016821F480510160016841F480617A
:1026D00001607047003C024008490A6822F44072D9
:1026E0000A600A6842F004020A600A684FF4803304
:1026F00043EA002002430A6070470000103C024099
:10270000064A136823F44073136013681360136858
:1027100043F001031360017070470000103C024059
:1027200010B509490C6824F440740C600C6844F43A
:1027300040740C600C6844F001040C600260BFF34C
:102740006F8F436010BD0000103C0240074A1368C1
:1027500023F440731360136843F4807313601368A9
:1027600043F001031360018070470000103C0240F9
:10277000074A136823F440731360136843F400732B
:102780001360136843F00103136001607047000099
:10279000103C024017490868C206174805D5C269AF
:1027A00042F01002C26110220A600A68920605D542
:1027B000C26942F00802C26120220A600A68520619
:1027C00005D5C26942F00402C26140220A600A686B
:1027D000120605D5C26942F00202C26180220A6077
:1027E0000A68920705D5C26942F02002C261022040
:1027F000086070470C3C02403C40002070B5044625
:1028000011490020C86101F001FE05460F4E09E0A4
:10281000601C07D024B101F0F9FD401BA04201D992
:10282000032070BD3068C003F2D43068C00701D007
:1028300001203060306810F0F20F03D0FFF7AAFFDC
:10284000012070BD002070BD3C4000200C3C0240C7
:102850000B480078072811D2DFE800F004061008C2
:102860000A0E0C0000F00CBA00F016B900F058BACD
:1028700000F090BA04F036BA04F034BA70470000A1
:10288000200500200C48007A012811D00B48007A5E
:1028900001280DD00A48007A012809D00948007A99
:1028A000012805D008480078012803D003F0AABD0C
:1028B00003F09CBD03F08EBDFC3F002008400020CB
:1028C000B40F0020C00F00202005002070B5214E5D
:1028D000214842F210757468641C7460D0E90231BA
:1028E0000269AC420AD81D4CE56B2B448360236C13
:1028F0001944C160616C1144016170BDB3FBF5F313
:10290000154C9BB220342380B1FBF5F189B2618074
:10291000B2FBF5F292B2A28000248460C46004612C
:102920007460A3F29C730124C92B0BD240F29C73F8
:10293000994207D340F66405A94203D89A4201D3CD
:10294000AA4204D9347206490520087070BD04708B
:1029500070BD0000B40F0020B40000200020014032
:10296000200500202DE9FE430024009401940294E8
:10297000434D2878002803D100F01AFA012028706E
:10298000404EDFF8FC8096ED070A08F10C0808F1CC
:102990000C07B5EEC00AF1EE10FA29D168683A4981
:1029A000401C686088421CD8D8F80400401CC8F855
:1029B0000400022803D3FFF701FBC8F8044078683D
:1029C000401C7860042802D3FFF732FB7C602D485E
:1029D0009C3004F06FFBBDE8FE432A489C3004F0B5
:1029E00097BC6C60B7EE000A86ED070ABDE8FE836F
:1029F00010EE100AB0F17E5FF8D1D8F80400401C48
:102A0000C8F80400022803D3FFF7D8FAC8F8044036
:102A10007868401C7860042802D3FFF709FB7C60CB
:102A200018489C3004F046FB16489C3004F070FCBB
:102A30006868401C6860C82816D31448808900095B
:102A40001349CA6B0E4B243323F810200A6C03F58C
:102A5000805323F81020496C03F5805222F810109F
:102A6000B088401CB0806C60B088B0F5FA6FBDD300
:102A7000B4809FED080A86ED070A03203070B5E7A1
:102A8000CC0F0020B4000020A08601007C000020B4
:102A900000200140000000000A49087800280BD0FF
:102AA00001280BD002280BD0032804D10020087085
:102AB0000549062008707047FFF708BF00F006B808
:102AC000FFF750BFB4000020200500202DE9F041A1
:102AD0002DED028B5F4E7068401C706028287CD3FF
:102AE0005D4D69789FED5D8A9FED5D0A284605F191
:102AF0002802B0F902004FF00108002429B1594F13
:102B0000012933D0022969D09EE04FF47A77B84288
:102B100019DC00EE900AF8EEE00A60EE880A80EE1A
:102B2000801A82ED171A4C48283003F025FB4A48DA
:102B3000283004F0BFFA4848283004F0E9FB6888E0
:102B4000401C688080E040F2E241884202DC401C88
:102B5000688079E04348FEF76FFF4248FEF754FF74
:102B600085ED050A6F8085F801806DE0002819DB8E
:102B700000EE900AF8EEE00A60EE880A80EE801A15
:102B800082ED171A3448283003F0F6FA324828301C
:102B900004F090FA3048283004F0BAFB6888401EF0
:102BA000688051E010F1FA0F02DB401E68804BE0B4
:102BB0002C48FEF741FF2B48FEF726FF85ED060A5D
:102BC00095ED051A284A294871EE400AF6EE001ADA
:102BD00010EE901A91420EDD01E036E027E087F812
:102BE000048088EE200A30EE210ABCEEC00A10EE06
:102BF000101A017017E010EE901A1D4A91420DD97B
:102C0000FF21397130EE410AC8EE000A30EEA10A08
:102C1000BCEEC00A10EE101A017004E086F80880BD
:102C20001449052008706C80022068700CE012487E
:102C300004609FED120A87ED060ABC606C806C7020
:102C400000F0DCF8032028707460BDEC028BBDE856
:102C5000F0810000C00F0020B4000020DB0FC9404D
:102C600000007A445C000020CDCCCC3D2C400020FC
:102C7000CDCCCCBD20050020240400400000000085
:102C80002DE9F041214844F62061007810FB01F362
:102C9000204C1F4D002662682878511C00280AD05D
:102CA00001280ED11C4B68881B68032825D205F12A
:102CB000780762B10EE044F620601844824202D8E0
:102CC0006160BDE8F081666001202870F9E737F89F
:102CD00020209A6261601422B1FBF2F107EB8002BE
:102CE0005288914202D36660401C6880BDE8F04182
:102CF00007480121001D04F015B82E7066609E6221
:102D000003F0F0FF054906200870DAE722050020ED
:102D1000CC030020F03F0020BC070020200500204D
:102D200070B5194C2078002803D100F041F801203B
:102D3000207060680025401C6060022802D304F007
:102D40009FFA656010490C314868401C48600428AF
:102D500002D304F0DBFA4D600B4A18325068401C75
:102D60005060142800D35560207A08B9087A18B149
:102D700006490520087070BD054804F09BF9BDE8C0
:102D80007040034804F0C4BAFC3F00202005002036
:102D90005404002010B5054C6068401C6060022897
:102DA00003D303F045F90020606010BD20400020EF
:102DB00086B00E4900206A4651F8203B42F8203088
:102DC000401CC0B20628F7D3094900980871019841
:102DD00048800849029808700748039901800499BF
:102DE00041800599818006B07047000000000A0804
:102DF0005C0000202C400020D400002070B58CB076
:102E00000020069007900920099001200A900220D6
:102E10000B9001F0DDF906A907A801F041F911486E
:102E200090F904100091408801900F4800780290BA
:102E30000E480188039141880491808805900C4DCB
:102E400000246E46002356F824202946022001F073
:102E500081F92035641CE4B2062CF3D301F070F93B
:102E60000CB070BD5C0000202C400020D40000207D
:102E700000000A0810B504462DED028BE068401CE6
:102E8000E060142801D30020E06094ED030AB3EE63
:102E9000041AF8EE400A80EE810ADFED0B0A20EEFC
:102EA000208AB0EE480AFDF713FAD4ED000A20EEAE
:102EB000200A84ED010AB0EE480AFDF745FA84EDD8
:102EC000020ABDEC028B10BDDB0FC94070B5714C1E
:102ED0008A6990F83C20012A19D0012280F83C2010
:102EE0000A680725092A14D90368DE680A3A02EB42
:102EF00042029540AE43DE600A788B680A3A02EBE4
:102F0000420293400268D5682B43D36011E002204F
:102F100070BD03681E6902EB42029540AE431E611C
:102F20000A788B6802EB42029340026815692B43D2
:102F300013610268936B23F4401393630268956BEB
:102F40000B8A5B1E45EA035393630A790B7CD21A02
:102F5000D21C02EB82021F2393400268956B9D43B3
:102F600095630A790B7CD21A0B88D21C02EB820281
:102F70009BB293400268956B2B4393638A69A2428C
:102F800014D00268936823F47023936002689368F6
:102F90008C69234393600268936823F44013936021
:102FA00002689368CC692343936009E002689368E0
:102FB00023F4702393600268936823F440139360B2
:102FC0004A7D2AB10268536843F48063536004E089
:102FD0000268536823F4806353600A7D2AB1026853
:102FE000536843F48053536004E00268536823F449
:102FF000805353604A68012A16D0022A1FD0032A40
:1030000028D00268136A6FF30B0313620268136A15
:10301000CC6823431362204A204B04689C4228D189
:103020000C68122C21D024E0026853696FF30B0363
:10303000536102685369CC6823435361EBE702682C
:1030400093696FF30B03936102689369CC68234320
:103050009361E0E70268D3696FF30B03D361026801
:10306000D369CC682343D361D5E7546844F4800422
:10307000546004689C4208D10968102901D01129C4
:1030800003D1516841F400015160002180F83C10E7
:10309000002070BD01000F0000230140002001400E
:1030A0000249884201D1FFF7D3BB70477C0500205D
:1030B00018B50022009290F83C10012907D0012198
:1030C00080F83C1001688B68DB0702D014E0022016
:1030D00018BD8B6843F001038B602D492D4B0968A7
:1030E000B1FBF3F101EB4101009102E00099491EAF
:1030F000009100990029F9D101688B68DB073CD069
:10310000036C42F20104A34343F480530364036C51
:10311000DB0500D4426480F83C206FF004020A60B2
:103120001D494968C90613D00068816811F4401F21
:1031300021D00021426842F38022521C174B984252
:1031400023D111B30AB3816841F4800181601CE08E
:103150000068816811F4401F0BD00021426842F3DF
:103160008022521C89B182B1816841F48001816062
:103170000BE00121F2E70121DCE7016C41F01001D5
:103180000164416C41F001014164002018BD000060
:103190007805002040420F0000230140002001403C
:1031A00078B50024009490F83C20012A19D001221F
:1031B00080F83C200A680725092A14D90368DE68CC
:1031C0000A3A02EB42029540AE43DE600A788B6811
:1031D0000A3A02EB420293400268D5682B43D3605F
:1031E00011E0022078BD03681E6902EB420295409F
:1031F000AE431E610A788B6802EB4202934002687C
:1032000015692B4313614A681F25072A13D20368E7
:103210005E6B521E02EB82029540AE435E630A88EB
:1032200093B20A79521E02EB820293400268556BF8
:103230002B43536328E00D2A13D203681E6BD21F61
:1032400002EB82029540AE431E630A8893B20A796C
:10325000D21F02EB820293400268156B2B4313636B
:1032600012E00368DE6A0D3A02EB82029540AE433B
:10327000DE620A8893B20A790D3A02EB8202934029
:103280000268D56A2B43D362174A184B05689D42E2
:1032900006D10D68122D03D1556845F4800555609F
:1032A00005689D421BD10B68102B01D0112B16D144
:1032B000536843F400035360096810290FD10C4987
:1032C0000C4A0968B1FBF2F101EB81014900009160
:1032D00002E00099491E009100990029F9D180F877
:1032E0003C40002078BD0000002301400020014048
:1032F0007805002040420F00704770470068C06C9E
:10330000704770B5044620680168C1F34001426807
:10331000C2F3401200292AD04AB3216CC90603D453
:10332000216C41F400712164816811F0405F17D174
:10333000217EA9B9C16A11F4700F02D081684905D4
:103340000ED4416821F020014160206C20F480708F
:103350002064206CC00403D4206C40F00100206481
:103360002046FFF7C9FF21686FF01200086020684F
:103370000168C1F380014268C2F3C01289B382B30D
:10338000216CC90603D4216C41F400512164816889
:1033900011F4401F1ED1816B11F4401F02D08168CF
:1033A000490517D44168490514D4816811F0405F7C
:1033B00010D1217E71B9416821F080014160206CFB
:1033C00020F480502064206CC00503D4206C40F0B1
:1033D000010020642046FFF763FE21686FF00C00B7
:1033E000086020680168C1F300014268C2F38012DE
:1033F00071B16AB10068C0070AD0206C40F4803017
:103400002064204600F046F821686FF00100086053
:1034100020680168C1F340114268C2F3806200294C
:103420000DD0002A0BD0616C41F0020161646FF095
:10343000200505602046FFF760FF2068056070BD2D
:1034400070B504460026002C03D0206C002510B176
:1034500007E0012070BD204600F01EF8656484F886
:103460003C50206CC00610D4206C20F4885040F0F2
:10347000020020642046FEF743FB6564206C20F0C8
:10348000020040F00100206400E0012684F83C5076
:10349000304670BD7047000030B587B00446142137
:1034A00002A8FDF73AF91D492068884234D100246A
:1034B0001B48016841F480710160006800F480706D
:1034C000019017481438016841F004010160016857
:1034D00001F004010191016841F0010101600068FF
:1034E00000F001000190012002900325039504944F
:1034F00002A90C4800F094FE0F200290039504945A
:1035000002A9094800F08CFE00221146122000F0AA
:10351000EFFF122000F0DEFF07B030BD00200140B9
:1035200044380240000802400000024018B5002262
:10353000009290F83C10012907D0012180F83C103E
:1035400001688B68DB0702D014E0022018BD8B688D
:1035500043F001038B603449344B0968B1FBF3F14C
:1035600001EB4101009102E00099491E0091009990
:103570000029F9D101688B68DB074BD0036C40F25E
:103580000164A34343F4807303644B685B0505D572
:10359000036C23F4005343F480530364036CDB0493
:1035A00004D5436C23F00603436400E0426480F8D2
:1035B0003C201F4A6FF022030B605168CA061D4968
:1035C00007D0006888422DD1816811F0405F1CD07F
:1035D00028E0006888420FD0174A904203D1D1F802
:1035E0000423D20608D0154A90421BD1D1F8041307
:1035F00001F01F01102915D2816811F0405F11D12F
:10360000816841F0804181600CE0816841F0804137
:10361000816007E0016C41F010010164416C41F0F0
:1036200001014164002018BD7805002040420F00D0
:103630000023014000200140002101400022014000
:1036400090F82020012A07D0022A05D0416A41F4CF
:103650008021416201207047006842690A4342614B
:103660000020704710B590F82020012A07D0022AC8
:1036700005D0416A41F480214162012010BD3C48DF
:1036800000F50070026842F001020260026822F454
:103690007C52026002684B6A42EA032202600A7DA1
:1036A00002F01F0301229A40C3699343C361A0F54E
:1036B0000070CB69B3B9D0F80C329343C0F80C3228
:1036C0008C894B6864F31F434C6900EBC404C4F855
:1036D00040320C890B6864F31F434C6900EBC4044F
:1036E000C4F84432CB69012B16D1D0F80C32134305
:1036F000C0F80C320C884B6864F31F434C6900EB34
:10370000C404C4F840320C89CB6864F31F434C698D
:1037100000EBC404C4F844328B697BB1D0F80432A6
:103720001343C0F804320B6973B1D0F81432134359
:10373000C0F81432096A01290CD010E0D0F8043224
:103740009343C0F80432EEE7D0F814329343C0F844
:103750001432EFE7D0F81C121143C0F81C12D0F855
:10376000001221F00101C0F80012002010BD00007D
:1037700000640040704730B590F82040012C07D01D
:10378000022C05D0416A41F480214162012030BD04
:1037900021B104682469A4075FD003E00468E468E9
:1037A000A40754D04FF4D874056804EB01142D59C4
:1037B00005F004059560F5B305682D59ED085560D1
:1037C00005682C5904F00204D4604FF4DA740568DB
:1037D00004EB01142D5905F00F05156105682D59ED
:1037E000C5F30725956105682C59240C54614FF4E5
:1037F000DC72046802EB0112A4581C700468A4581F
:10380000240A5C700468A458240C9C700468A258B4
:10381000120EDA704FF4DE72046802EB0112A45843
:103820001C710468A458240A5C710468A458240C10
:103830009C71046800E016E0A258120EDA71B9B16A
:103840000068016941F020010161002030BD416A3A
:1038500041F400114162012030BD416A41F4001180
:103860004162012030BD05682D596D0D1560A7E737
:103870000068C16841F02001C160E6E72DE9F05F12
:103880000546002428684669D0F804908768D0F877
:103890000CA0D0F810B0D0F81880F10748D0F90784
:1038A00014D001218160B80703D5284600F00EFA34
:1038B0000CE0780702D54FF4006407E0380702D522
:1038C0004FF4805402E0284600F0FFF9F80516D5C1
:1038D00029684FF480708860B80503D5284600F049
:1038E000F7F90CE0780502D544F4005407E03805F8
:1038F00002D544F4804402E0284600F0E8F9F803D9
:1039000016D529684FF480308860B80303D528465F
:1039100000F0E0F90CE0780302D544F4004407E03D
:10392000380302D544F4803402E0284600F0D1F98F
:10393000300707D55FEACA6004D544F400742968EB
:103940001020C86070074FF0080707D55FEA0A70BB
:1039500004D52868C760284600F07EF9B00706D570
:103960002868C068800702D0284600F077F9700602
:1039700007D55FEACB6004D544F480642968102041
:103980000861B00607D55FEA0B7004D528680761A7
:10399000284600F06BF9F00606D528680069800714
:1039A00002D0284600F063F9B00308D55FEAC96089
:1039B00005D5296810204860284600F059F9F00321
:1039C00007D55FEA097004D528684760284600F0EB
:1039D00082F9300446D55FEA497040D5F00504D538
:1039E0005FEAC87001D044F00104B00504D55FEA75
:1039F000887001D544F00204700504D55FEA487070
:103A000001D544F00404300529D518F0700F26D0F4
:103A100008F07000402815D006DC102809D02028B6
:103A20000AD0302816D10AE050280ED0602811D1D3
:103A30000EE044F008040DE044F010040AE044F005
:103A4000200407E044F0400404E044F0800401E076
:103A500044F480742868816921F0700181612968CB
:103A600004204860002C05D0686A2043686228461C
:103A7000FFF780FEBDE8F09F70B50446002C03D030
:103A800094F8200010B104E0012070BD204600F041
:103A90009DF82068016841F00101016000F0B6FC6A
:103AA000054605260CE000F0B1FC401B0A2807D9AA
:103AB000606A40F40030606284F82060012070BDCC
:103AC00020684068C007EED02068016821F002013C
:103AD000016000F09BFC05460CE000F097FC401BE9
:103AE0000A2807D9606A40F40030606284F82060D8
:103AF000012070BD206840688007EED4207E012838
:103B00003FD02068016821F080010160607E0128BB
:103B10003DD02068016821F040010160A07E0128AD
:103B20003BD02068016821F020010160E07E01287F
:103B300039D02068016841F010010160207F012820
:103B400037D02068016821F008010160607F0128FA
:103B500035D02068016821F004010160D4E9020138
:103B60000843D4E90412114308436168491E08431D
:103B70002168C86100206062012084F820000020D4
:103B800070BD2068016841F080010160BEE72068D7
:103B9000016841F040010160C0E72068016841F020
:103BA00020010160C2E72068016821F01001016076
:103BB000C4E72068016841F008010160C6E7206899
:103BC000016841F004010160C8E7000010B586B04B
:103BD0000446142101A8FCF7A0FD1C492068884276
:103BE00031D100211A48026842F000720260006878
:103BF00000F00070009016481038026842F0010290
:103C00000260006800F0010000904FF4C050019085
:103C1000022002900391032004900920059001A93D
:103C20000C4800F0FDFA02220021132000F060FC95
:103C3000132000F04FFC01220021142000F058FC5A
:103C4000142000F047FC06B010BD000000640040E6
:103C5000403802400000024070470000024988429C
:103C600001D1FEF76FB87047C40500207047704758
:103C7000704770B5044694F82000012805D0606AAA
:103C800040F400206062012070BD022084F8200012
:103C90002068016821F00101016000F0B7FB0546D2
:103CA0000DE000F0B3FB401B0A2808D9606A40F41D
:103CB00000306062052084F82000012070BD20687B
:103CC0004068C007EDD1606270BD704770477047B3
:103CD00070477047704770472DE9F0410446A76D63
:103CE00000F094FB054694F835000026022806D023
:103CF0008020606584F834600120BDE8F081206890
:103D0000016821F0160101602068416921F08001FD
:103D10004161206C08B9A06C20B12068016821F0D5
:103D2000080101602068016821F0010101600BE0D9
:103D300000F06CFB401B052806D92020343420629B
:103D4000032060702670D8E720680068C007EFD1B4
:103D500034343F2094F828108840B8600120607007
:103D600026700020C9E790F83510022903D0802181
:103D7000416501207047052180F835100068016811
:103D800021F0010101600020704700002DE9F84397
:103D900004464FF00009CDF800906F484FF41651DB
:103DA0000068B0FBF1F7A56D2E6894F85C0008225E
:103DB00002FA00F1314210D02068016849070CD5A1
:103DC000016821F00401016094F85C0002FA00F13E
:103DD000A960606D40F00100606594F85C104FF0E0
:103DE000010808FA01F0304208D021684969090643
:103DF00004D5A860606D40F00200606594F85C1026
:103E000004208840304208D021680968890704D519
:103E1000A860606D40F00400606594F85C101020AC
:103E20008840304220D02168096809071CD5A86065
:103E30002068016849030CD50068000304D4216C94
:103E400091B1204688470FE0A16C69B120468847B0
:103E50000AE00168C90503D4016821F00801016086
:103E6000216C09B12046884794F85C1020208840D6
:103E700030424CD021680968C90648D5A86094F83A
:103E8000350005280BD020680168490330D500684B
:103E9000000328D4616C51B32046884737E020687E
:103EA000016821F0160101602068416921F080015C
:103EB0004161206C08B9A06C20B12068016821F034
:103EC0000801016094F85C103F208840A86084F8E5
:103ED000358084F83490216D00293BD001B0204614
:103EE000BDE8F0430847E16B09B1204688470EE082
:103EF0000168C90507D4016821F01001016084F848
:103F0000358084F83490E16B09B120468847606DB4
:103F100000281FD0606DC00714D0052084F835003C
:103F20002068016821F0010101600098401C0090A8
:103F3000B84203D820680068C007F6D184F83580FD
:103F400084F83490E16C002904D001B02046BDE82B
:103F5000F0430847BDE8F883780500202DE9F041DB
:103F6000044600F053FA05465CB1022084F835009F
:103F7000002684F834602068016821F001010160A6
:103F80000DE00120BDE8F08100F040FA401B05285B
:103F900005D920206065032084F83500F2E7206809
:103FA0000068C007F0D121680A6820480240D4E9BF
:103FB00001031843D4E903352B43184363691843BD
:103FC000A3691843E3691843236A18431043626ADC
:103FD000042A03D1D4E90B231A4310430860206854
:103FE000406920F00700656A294605430127042936
:103FF0000DD1A06A0543E06A48B12046FEF79EF95C
:1040000028B14020606584F835700120BAE7206847
:1040100045612046FEF77CF994F85C203F219140F1
:104020008160666584F835700020ABE73F8010F052
:104030002DE9F04104460025A66D94F834000128CE
:104040000DD0012084F8340094F835700020012F41
:1040500007D084F8340002252846BDE8F08102200C
:10406000FBE7022784F8357060652046FEF7A2F969
:1040700094F85C103F208840B0602068016841F0EF
:1040800016010160206C20B12068016841F0080130
:1040900001602068016841F001010160DCE7000077
:1040A0002DE9F04704460E46DFF88C8098F818009A
:1040B00001280BD0012088F818004CF250394846EE
:1040C000FEF79CFB0246100003D02FE00220BDE863
:1040D000F0874FF0FF3030602068184F012801D082
:1040E000A5681CE0207C6168FEF7F6FA4846FEF7FA
:1040F00085FB0246386820F00400386014E0217C1B
:104100002846FEF797FA4846FEF778FB02463868DD
:1041100020F0FA0038600AB1356005E06D1CD4E982
:1041200002100844A842EAD8FEF7ACFA002088F84A
:1041300018001046CBE700003C400020103C024035
:104140000348016841F00041016000207047000011
:10415000103C02402DE9F0470646894614461D46AC
:10416000194F387E012808D0012038764CF250389B
:104170004046FEF743FB18B114E00220BDE8F0878B
:104180009EB1012E16D0022E19D022462B4648464B
:10419000FEF7C6FA4046FEF731FB0C490A6822F0EA
:1041A00001020A6000213976E8E7E1B24846FEF7ED
:1041B000A7FAEFE7A1B24846FEF7C8FAEAE72146B8
:1041C0004846FEF7D5FAE5E73C400020103C0240A7
:1041D000002007490A68002A09DA054A054B0C3A0B
:1041E0001360054B13600968002900DA012070474D
:1041F000103C024023016745AB89EFCDB0F5807FCD
:1042000001D1FEF7E3B9704710B504490A680242CC
:1042100002D00860FFF7F2FF10BD0000143C01401F
:104220002DE9F84F0022DFF89C914FF0010809F1C9
:10423000040A03274FF00F0C0AF1040B08FA02F5E9
:104240000B682B40AB426ED10C7904F00304012CB7
:1042500001D0022C15D18668540007FA04FE26EA24
:104260000E06D1F80CE00EFA04FE4EEA060EC0F877
:1042700008E04468AC430D79C5F30015954025432B
:1042800045600C79E443A40708D0C568540007FAD8
:1042900004F6B5438E68A6402E43C6600C7904F040
:1042A0000304022C11D1D40800EB8406356A5407AC
:1042B000E40E0CFA04FE25EA0E05D1F810E00EFA21
:1042C00004FE4EEA050EC6F820E00568540007FA21
:1042D00004F6B5430E7906F00306A6402E430660A9
:1042E0004C6814F4403F67D0374C256845F480454E
:1042F0002560246804F480440094344C22F00305C3
:104300002E19D6F8085894074FEA147E0CFA0EF4CA
:10431000A5432F4CA04201D1002424E02D4CA04203
:1043200002D101241FE047E02B4CA04201D102241E
:1043300019E02A4CA04201D1032414E0284CA042E9
:1043400001D104240FE0274CA04201D105240AE04A
:10435000254CA04201D1062405E0244CA04201D105
:10436000072400E0082404FA0EF42C43C6F8084899
:10437000D9F800409C434D68ED0300D51C43C9F8B3
:104380000040DAF800409C434D68AD0300D51C4363
:10439000CAF80040DBF800409C434D68ED0200D5B0
:1043A0001C43CBF80040074D0C352C689C434E68ED
:1043B000B60200D51C432C60521C102AFFF43EAFFD
:1043C000BDE8F88F003C0140443802400030014015
:1043D000000002400004024000080240000C0240BD
:1043E000001002400014024000180240001C02406D
:1043F0000069084201D00120704700207047002A60
:1044000001D081617047090481617047014880686B
:10441000704700006C050020024881680278114452
:10442000816070476C05002010B50B48016841F4AD
:1044300000710160016841F480610160016841F42C
:1044400080710160032000F073F8022000F006F88C
:1044500000F026F8002010BD003C024070B5044674
:104460000D4D4FF47A712878B1FBF0F00B490968D3
:10447000B1FBF0F000F044FF08B1012070BD102C3A
:1044800007D200222146501E00F032F86C60002056
:1044900070BD012070BD00006C0500207805002073
:1044A00082B00B48016841F480410160006800F46B
:1044B000804001900648001F016841F08051016072
:1044C000006800F080500190052002B000F030B884
:1044D00044380240002809DB00F01F02012191400E
:1044E0004009800000F1E020C0F800117047000092
:1044F000F0B40D460D4B1B68C3F30223C3F1070450
:10450000042C00D90424191D072901D2002300E03E
:10451000DB1E012606FA04F1491E294099409E40FF
:10452000761E16403143F0BC03F0FEBB0CED00E0FC
:1045300000F00701054A10684FF6FF03184040EAF3
:104540000120034908431060704700000CED00E0B3
:104550000000FA052DE9F04704460D46002C13D063
:10456000DFF82891D9F80000EFB200F00700A84268
:104570000CD289F80070D9F8000000F00700A842BA
:1045800004D00120BDE8F0870120FBE72068404E01
:10459000810712D5400703D5306840F4E050306001
:1045A0002078000703D5306840F460403060306800
:1045B000A16820F0F000084330602078C00731D0B7
:1045C000334960680839012808D002280BD0032835
:1045D00009D0096889070BD40120D3E7096889034A
:1045E00006D40120CEE70968890101D40120C9E77A
:1045F000316821F0030101433160FFF707FF804676
:1046000041F2883A07E0FFF701FFA0EB08005045B0
:1046100001D90320B6E73068616800F00C00B0EB08
:10462000810FF0D1D9F8000000F00700A84209D9A5
:1046300089F80070D9F8000000F00700A84201D006
:1046400001209FE72078400705D53068E16820F415
:10465000E050084330602078000706D530682169B3
:1046600020F4604040EAC100306000F03FF831685B
:10467000084AC1F30311515CC84007490860074864
:104680000068FFF7EBFE00207CE70000003C0240E2
:1046900008380240A4C200087805002070050020F8
:1046A00001480068704700007805002000B5FFF75A
:1046B000F7FF04490968044AC1F38221515CC840EC
:1046C00000BD000008380240B4C2000800B5FFF782
:1046D000E7FF04490968044AC1F34231515CC8400C
:1046E00000BD000008380240B4C2000810B51748E9
:1046F000006810F00C01164816D04310042912D09F
:10470000082911D1114C241F216801F03F022168B2
:1047100049020AD52068C0F38810A0FB03010023DA
:10472000FBF78BFE09E0184610BD21680023C1F39A
:104730008811A1FB0001FBF780FE2168C1F3014154
:10474000491C4900B0FBF1F010BD000008380240E0
:104750000024F4002DE9F84F0446002C13D02078F3
:10476000DFF8BC83C007A8F1040558D008F10400A5
:104770000168C1F3810101290CD00068C0F38100F8
:10478000022803D00DE00120BDE8F88FD8F8000022
:10479000400206D52868800341D5606880BB0120AF
:1047A000F2E76068B0F5803F12D0B0F5A02F14D0CA
:1047B000286820F480302860286820F48020286051
:1047C00060684FF47A77E0B1FFF720FE064614E008
:1047D000286840F480302860F2E7286840F48020A0
:1047E0002860286840F480302860E9E7FFF70EFE73
:1047F000801BB84201D90320C6E728688003F5D59D
:104800000DE0FFF703FE064606E0FFF7FFFD801B05
:10481000B84201D90320B7E728688003F5D420788F
:10482000C04F80074FF0000A48D5BD48001D016801
:1048300011F00C0F08D00068C0F38100022813D1DA
:10484000D8F8000040020FD42868800704D5E0683B
:10485000012801D0012097E72868216920F0F8009D
:1048600040EAC100286029E0E068B8B10120386062
:10487000FFF7CCFD064606E0FFF7C8FD801B0228C7
:1048800001D9032080E728688007F5D528682169C9
:1048900020F0F80040EAC10028600FE0C7F800A04F
:1048A000FFF7B4FD064606E0FFF7B0FD801B0228C7
:1048B00001D9032068E728688007F5D4207800072D
:1048C00029D5DFF85C929848616909F1700989B1CE
:1048D00001210160FFF79AFD064606E0FFF796FD0D
:1048E000801B022801D903204EE7D9F80000800779
:1048F000F4D510E0C0F800A0FFF788FD064606E0FA
:10490000FFF784FD801B022801D903203CE7D9F87A
:1049100000008007F4D4207840076ED50026804838
:104920003C300068C0000AD47D483C30016841F04A
:1049300080510160006800F0805000900126DFF88F
:10494000ECB1DBF80000C00515D4DBF8000040F442
:104950008070CBF80000FFF759FD814607E0FFF7B4
:1049600055FDA0EB0900022801D903200CE7DBF874
:104970000000C005F3D5DFF8A8B1A0680BF16C0BFF
:10498000012813D0052818D0DBF8000020F0010022
:10499000CBF80000DBF8000020F00400CBF80000AA
:1049A000A06830B3FFF732FD81461DE0DBF8000060
:1049B00040F00100CBF80000F2E7DBF8000040F027
:1049C0000400CBF80000DBF8000040F00100CBF859
:1049D0000000E5E7FFF71AFDA0EB090141F288307E
:1049E000814201D90320CFE6DBF800008007F1D532
:1049F00012E0FFF70BFD81460AE015E0FFF706FD28
:104A0000A0EB090141F28830814201D90320BBE6C5
:104A1000DBF800008007F1D4012E05D140483C307E
:104A2000016821F080510160A069B8B33C49091DBB
:104A300009684FF0FF39C1F38101022945D00228EE
:104A400005D0C7F860A0FFF7E1FC044639E0C7F8DD
:104A500060A0FFF7DBFC064606E0FFF7D7FC801BF3
:104A6000022801D903208FE628688001F5D4D4E913
:104A700007010843616AA26A890109EB520241EA0F
:104A80000241084394F82C1040EA0160C8F8000085
:104A900001203866FFF7BAFC044607E03DE0FFF767
:104AA000B5FC001B022801D903206DE628688001AF
:104AB000F5D532E0FFF7AAFC001B022801D903203C
:104AC00062E628688001F5D427E0012823D0D8F8D1
:104AD0000000E26900F4800191421AD1226A00F0DC
:104AE0003F01914215D147F6C071626A0140B1EBB6
:104AF000821F0ED1A26A00F4403109EB5202B1EBE1
:104B0000024F06D194F82C1000F07060B0EB016FEA
:104B100003D0012038E6012036E6002034E600000C
:104B20000438024000004742800E474200700040B7
:104B3000704770B50446002C09D0606A002540B16A
:104B400025616561A56294F8510040B10CE0012037
:104B500070BD6068B0F5827FF4D0E561F2E784F85B
:104B60005050204600F044F8022084F8510020689C
:104B7000016821F040010160A088218900F4827061
:104B800001F404410843A18901F400610843217C38
:104B900001F002010843217D01F001010843218B4E
:104BA00001F400710843217F01F03801084394F8B3
:104BB000201001F080010843218D01F400510843C9
:104BC00021680860A069042101EA104094F82410CB
:104BD00001F010010843216848602068C16921F490
:104BE0000061C1616565012084F85100002070BD3D
:104BF0002DE9F04786B00546142101A8FBF78DFD8D
:104C000050495148DFF838C12A684E4B1039022705
:104C1000DFF838A1002406154FF0030862452FD1B4
:104C20001A6842F480421A601A6802F480420092C4
:104C30000A6842F004020A600A6802F00402009264
:104C40000A6842F002020A60096801F0020100915C
:104C50000C21019102970394CDF81080052505954C
:104C600001A9FFF7DDFA019602970394CDF81080B1
:104C7000059501A95046FFF7D3FA06B0BDE8F087C5
:104C8000DFF8CCC06245F8D11A6842F400421A60DD
:104C90001A6802F4004200920A6842F004020A60B4
:104CA0000A6802F0040200920A6842F002020A60F6
:104CB000096801F002010091019602970394CDF872
:104CC00010804FF00609CDF8149001A9FFF7A8FA5B
:104CD0003020019002970394CDF81080CDF8149005
:104CE00001A95046FFF79CFA1B4F1A4838607C60B8
:104CF000BC60FC603E617C61BC61FC613C627C62CA
:104D00003846FFF72BF908B1FDF792FCEF64BD635D
:104D10001048114F7830603738607C604020B860B0
:104D2000FC603E617C61BC61FC613C627C62384637
:104D3000FFF714F908B1FDF77BFCAF64BD639CE796
:104D400000380040403802400008024000040240A1
:104D5000003C004010600240FC0600202DE9F84FA6
:104D600004468A4691461D46002660684FF0040BB3
:104D7000B0F5827F01D1A06888B194F85000012875
:104D800018D0012084F85000FFF740FB074694F844
:104D900051004FF0000801280ED0022682E084F86E
:104DA00051B04B46524651462046009500F048F916
:104DB000BDE8F88F0220FBE7BAF1000F1BD0B9F174
:104DC000000F18D084F851B0C4F85480C4F838A04B
:104DD000A4F83C90A4F83E90C4F83080A4F8348045
:104DE000A4F83680C4F84080C4F84480A068B0F5C8
:104DF000004F02D00BE0012654E02068016821F04A
:104E0000400101602068016821F480410160206850
:104E10000168490603D4016841F040010160E0687F
:104E2000B0B131E020688168C90709D0007BA16B6F
:104E30000870A06B401CA063E08F401EE08707E075
:104E4000FFF7E4FAC01BA84201D3681C04D11DB1CE
:104E5000E08F0028E6D11AE0032623E0206881686D
:104E6000C90709D0C068A16B0880A06B801CA06333
:104E7000E08F401EE08707E0FFF7C8FAC01BA8429A
:104E800001D3681C15D1A5B1E08F0028E6D13A46C0
:104E90002946204602F03AF808B120206065606D8E
:104EA00000B10126012084F8510084F8508030467A
:104EB0007EE70326F6E72DE9F84F04468B46924637
:104EC0001D46002694F8500001280DD04FF001092E
:104ED00084F85090FFF79AFA074694F85100B046CC
:104EE000012804D00226A5E00220BDE8F88FBBF11E
:104EF000000F1CD05FEA0A0019D0032084F851008B
:104F0000C4F85480C4F830B0A4F834A0A4F836A093
:104F1000C4F83880A4F83C80A4F83E80C4F84480EB
:104F2000C4F84080A068B0F5004F02D00BE0012625
:104F300080E02068016821F040010160206801687C
:104F400041F48041016020680168490603D401688A
:104F500041F040010160E068B0F5006F05D0606885
:104F600078B3BAF1010F2DD04DE0606810B1BAF1FD
:104F7000010F20D1206B21680088C860206B801C45
:104F80002063E08E401EE08615E020688168890776
:104F900009D5216B0988C160206B801C2063E08EDD
:104FA000401EE08607E0FFF731FAC01BA84201D39C
:104FB000681C04D11DB1E08E0028E6D126E003264E
:104FC00038E0FFE7206B216800780873206B401CF5
:104FD0002063E08E401EE08615E020688168890726
:104FE00009D5216B09780173206B401C2063E08E8A
:104FF000401EE08607E0FFF709FAC01BA84201D374
:10500000681C0ED16DB1E08E0028E6D13A462946E3
:10501000204601F0C1FF08B120206065A06810B1F2
:1050200005E0032606E02068C16880680090606D96
:1050300000B1012684F8519084F85080304654E73E
:105040002DE9F84F04460A9E8A4693461F460125DD
:105050004FF0000894F8500001280ED0012084F889
:105060005000FFF7D3F9814694F851006168012898
:105070000DD0B1F5827F07D102E00220BDE8F88FA4
:10508000A16809B9042802D04FF00208C3E0BAF1C0
:10509000000F28D0BBF1000F25D0380023D094F8A2
:1050A0005100042802D0052084F8510000206065DA
:1050B000C4F838B0E787A787C4F830A0E786A7868A
:1050C0002064606420680168490603D4016841F0E7
:1050D00040010160E068B0F5006F07D06068E8B398
:1050E000012F48D07DE04FF0010894E0606808B1DE
:1050F000012F39D1206B21680088C860206B801C8B
:105100002063E08E401EE0862EE0206881688907DB
:105110000DD5E18E59B1012D09D1216B0988C160EE
:10512000206B801C2063E08E401EE08600252068F6
:105130008168C9070BD0E18F49B1C068A16B0880B5
:10514000A06B801CA063E08F401EE0870125FFF765
:105150005DF9A0EB0900B04206D300E00BE0701C43
:1051600002D04FF0030856E0E08E0028CDD1E08F4A
:105170000028CAD13BE0206B216800780873206BBF
:10518000401C2063E08E401EE0862AE02068816893
:1051900089070DD5E18E59B1012D09D1216B09780F
:1051A0000173206B401C2063E08E401EE0860025CA
:1051B00020688168C9070BD0E18F49B1C068A16B35
:1051C0000870A06B401CA063E08F401EE0870125A3
:1051D000FFF71CF9A0EB0900B04201D3701C11D1FC
:1051E00086B1E08E0028D1D1E08F0028CED14A468A
:1051F0003146204601F0D0FE38B14FF001082020A2
:10520000606508E04FF0030805E0A06818B9206861
:10521000C1688068009001205034607000202070C8
:1052200040462BE72DE9F0410446002594F8500054
:10523000012809D0012784F8507094F85100002605
:10524000012804D002254EE00220BDE8F08189B19A
:1052500082B1032084F8510066652163A286E2864C
:10526000A66366642664A687E687A068B0F5004F4B
:1052700002D00BE0012536E02068016821F04001F2
:1052800001602068016841F480410160A16C184808
:105290000864A16C1748C863A16C1748C864A06C67
:1052A0000665E38E2268216B0C32A06CFEF7C0FE0F
:1052B00038B1606D40F010006065012584F85170D0
:1052C00011E020680168490603D4016841F04001FB
:1052D00001602068416841F0200141602068416818
:1052E00041F00201416084F850602846ADE70000BB
:1052F0009F6E0008A96E00087D6E00087047704719
:1053000010B5401EB0F1807F01D3012010BD4FF0D9
:10531000E02460610F21601702F006FD0020A0610B
:1053200007202061002010BD7047704710B590F82D
:105330003C20012A22D0012280F83C20CA680023A8
:105340008C6822F4407222434C6822F4806222432B
:105350000C6822F4006222430C6922F4805222433A
:105360004C6922F400522243C96922F480420A4364
:1053700001684A6480F83C30002010BD022010BD56
:1053800070B590F83C20012A31D0012680F83C60AD
:10539000022280F83D2002685468936824F070056A
:1053A0000C682C435460134C0268A24214D0B2F132
:1053B000804F11D0104CA2420ED0104CA2420BD004
:1053C0000F4CA24208D00F4CA24205D00E4CA24274
:1053D00002D00E4CA24204D123F080034968194345
:1053E00091603C30467000210170002070BD0220A9
:1053F00070BD0000000001400004004000080040B3
:10540000000C004000040140004001400018004032
:1054100010B50446002909D004290AD008290BD068
:1054200094F8450001280AD0012010BD94F84200EC
:10543000F8E794F84300F5E794F84400F2E7022017
:1054400089B3042933D0082934D084F845000422D4
:10545000206802F0A2F82068416C41F400414164E8
:1054600019492068884214D0B0F1804F11D01749F3
:1054700088420ED0164988420BD01649884208D07F
:105480001549884205D01549884202D014498842FE
:1054900013D1816801F00701062912D0016841F09B
:1054A000010101600DE0FFE784F84200CFE784F8D6
:1054B0004300CCE784F84400C9E7016841F00101EA
:1054C0000160002010BD0000000001400004004009
:1054D00000080040000C0040000401400040014072
:1054E0000018004010B50446002C03D094F83D008D
:1054F00010B107E0012010BD002084F83C002046D8
:1055000000F016F8022084F83D00211D206801F00B
:10551000D1FF01203D3460726070A070E070207196
:105520006071A071E07120722070002010BD000039
:1055300008B500680B49884212D10B48016841F058
:1055400020010160006800F020000090022201218B
:105550003720FEF7CDFFBDE808403720FEF7BABF81
:1055600008BD0000001400404038024090F83D1093
:10557000012901D001207047022180F83D10016807
:10558000CA6842F00102CA6000681449884214D017
:10559000B0F1804F11D0124988420ED01149884293
:1055A0000BD01149884208D01049884205D01049D3
:1055B000884202D00F49884209D1816801F0070171
:1055C000062908D0016841F00101016003E001688B
:1055D00041F001010160002070470000000001401F
:1055E0000004004000080040000C0040000401409E
:1055F00000400140001800402DE9F04104460D46EE
:10560000002C03D094F83D0018B108E00120BDE85B
:10561000F081002084F83C00204600F047F802208A
:1056200084F83D002068816844F20702914381605C
:10563000211D206801F03EFF273454F8270C8168B3
:105640008269066A2B680B4340F203318A43AF69D3
:10565000A96842EA0722114340F60C4291434FF2F7
:10566000F0029143EF69EA6841EA07210A43296998
:105670002F6A090141EA0731114326F0220222F084
:1056800088066A686D6946EA05152A43836054F8FE
:10569000270C816154F8270C02620120E077E07545
:1056A0002076E0762077A0750020B0E710B586B0B0
:1056B0000446142101A8FBF730F8134920688842FA
:1056C0001FD100211148026842F002020260006806
:1056D00000F0020000900D481038026842F0040209
:1056E0000260006800F004000090C02001900220D9
:1056F0000290039103210491059001A90448FEF74B
:105700008FFD06B010BD000000040040403802408C
:105710000008024070B5044614F83E0F6278237901
:1057200065793E3C0226002904D004290DD00128C9
:105730001CD115E0012801D1012B01D0012070BD41
:1057400084F83E6084F8426018E0012A01D1012DFE
:1057500001D0012070BD84F83F6084F843600DE003
:10576000012A03D1012B01D1012D01D0012070BDEF
:1057700004F83E6F6670267166713E3C91B1042953
:1057800016D001220021206801F0FAFE0122042136
:10579000206801F0F5FE2068016841F00101016018
:1057A000002070BD01220021206801F0E9FEF2E72F
:1057B00001220421206801F0E3FEECE7704770B598
:1057C0000446206801694FF00005C943890716D4D3
:1057D000C168C943890712D4E91E016101202077FD
:1057E00020688069800703D02046FFF7E7FF05E0C7
:1057F000204600F0F1F8204600F0B0F92577206847
:105800000169C943490718D4C168C943490714D479
:105810006FF004010161022020772068806910F494
:10582000407F03D02046FFF7C9FF05E0204600F087
:10583000D3F8204600F092F9257720680169C94322
:10584000090717D4C168C943090713D46FF00801C9
:105850000161042020772068C069800703D02046BA
:10586000FFF7ACFF05E0204600F0B6F8204600F058
:1058700075F9257720680169C943C90618D4C1683C
:10588000C943C90614D46FF01001016108202077C4
:105890002068C06910F4407F03D02046FFF78EFFD8
:1058A00005E0204600F098F8204600F057F92577EB
:1058B00020680169C943C90708D1C168C943C9073C
:1058C00004D1891E0161204600F0B8F92068016901
:1058D000C943090609D4C168C943090605D46FF054
:1058E000800101612046FFF71FFD20680169C9435F
:1058F000490609D4C168C943490605D46FF040017F
:105900000161204600F0A2F920680169C9438906B7
:105910000BD4C168C943890607D46FF02001016127
:105920002046BDE87040FFF700BD70BDF0B587B000
:105930000446142102A8FAF7F0FE234B2268002443
:10594000224902270325012621489A4226D10A68C6
:1059500042F002020A600A6802F0020201920A683A
:1059600042F001020A60096801F00101019142F26E
:1059700003010291039704940595069602A9FEF788
:105980004FFC4FF4E060029003970494059506964F
:1059900002A91048FEF744FC07B0F0BDB2F1804FF9
:1059A000FAD10A6842F002020A60096801F00201B5
:1059B000019108210291039704940595069602A986
:1059C000FEF72EFCE8E700000000014030380240FE
:1059D0000004024000000240704770B504460D46C6
:1059E000002694F83C0001280FD0012084F83C00E8
:1059F0006AB1042A1FD0082A32D00C2A44D00126CA
:105A0000002084F83C00304670BD022070BD29465D
:105A1000206801F0CFFD2068816941F008018161B3
:105A20002068816921F004018161206881692A6907
:105A300011438161E4E72946206801F0EFFD206809
:105A4000816941F4006181612068816921F480618C
:105A50008161206881692A6941EA02218161CFE779
:105A60002946206801F014FE2068C16941F0080150
:105A7000C1612068C16921F00401C1612068C16968
:105A80002A691143C161BBE72946206801F038FE4D
:105A90002068C16941F40061C1612068C16921F4D5
:105AA0008061C1612068C1692A6941EA0221C1613E
:105AB000A6E710B50446002C03D094F83D0010B1C1
:105AC00007E0012010BD002084F83C00204600F0D3
:105AD00015F8022084F83D00211D206801F0EAFC41
