:020000040800F2
:100000006807002079020008B3180008B11700083B
:10001000B11800086F040008351A0008000000003D
:10002000000000000000000000000000B7180008F9
:100030001105000800000000B5180008B9180008F4
:10004000930200089302000893020008930200083C
:10005000930200089302000893020008930200082C
:10006000930200089302000893020008930200081C
:10007000930200089302000893020008930200080C
:100080009302000893020008930200087D04000810
:10009000710400089302000893020008930200080C
:1000A00093020008930200089302000893020008DC
:1000B00093020008930200089302000893020008CC
:1000C00093020008930200089302000893020008BC
:1000D00093020008930200089302000893020008AC
:1000E000930200089302000893020008930200089C
:1000F000930200089302000893020008930200088C
:10010000930200089302000893020008930200087B
:100110009302000893020008930200085D1900088A
:10012000930200089302000893020008930200085B
:10013000930200089302000893020008930200084B
:10014000930200089302000893020008930200083B
:10015000930200089302000893020008930200082B
:10016000930200089302000893020008930200081B
:100170009302000893020008000000000000000045
:1001800093020008930200089302000893020008FB
:100190009302000893020008000000009302000888
:1001A0009302000893020008000000000000000015
:1001B0009302000800000000000000009302000805
:1001C00093020008930200089302000893020008BB
:1001D000930200089302000800F002F800F03CF8D7
:1001E0000AA090E8000C82448344AAF10107DA4592
:1001F00001D100F031F8AFF2090EBAE80F0013F0A8
:10020000010F18BFFB1A43F001031847141900002F
:1002100034190000103A24BF78C878C1FAD85207C0
:1002200024BF30C830C144BF04680C607047000070
:100230000023002400250026103A28BF78C1FBD8EF
:10024000520728BF30C148BF0B6070471FB501F08F
:1002500059FC1FBD10B510BD00F0CFF81146FFF7D7
:10026000F5FF01F01BFC00F0EDF803B4FFF7F2FF1F
:1002700003BC00F0F5F80000094880470948004732
:10028000FEE7FEE7FEE7FEE7FEE7FEE7FEE7FEE746
:10029000FEE7FEE704480549054A064B70470000A3
:1002A0004D190008D90100086801002068070020E6
:1002B000680300206803002053EA020C00F0698004
:1002C0002DE9F04B4FF00006002B1FBFB3FA83F56A
:1002D00003FA05F424FA05F65E4012BF1643B2FA9B
:1002E00082F502FA05F4C5F120051EBF22FA05FCCD
:1002F00044EA0C04203556EA044C4FEA144418BF73
:10030000641C4FF000084FF00009904271EB030CA1
:1003100039D3002919BFB1FA81F701FA07F6B0FA0B
:1003200080F700FA07F6C7F120071EBF20FA07FC86
:1003300046EA0C062037B6FBF4FCA7EB0507103F96
:1003400007F01F0BCBF120060CFA0BFB2CFA06F67C
:1003500044BFB3460026202FA4BF5E464FF0000BDB
:100360005BEA060C08BF4FF0010B19EB0B09ABFB66
:10037000027C48EB0608C01B06FB02CC0BFB03CC3F
:1003800071EB0C01C1E70B46024641464846BDE809
:10039000F08B13B54FF000004FF00001AFF3008079
:1003A000BDE81C4070474FF0000200B5134694466C
:1003B0009646203922BFA0E80C50A0E80C50B1F1BD
:1003C0002001BFF4F7AF090728BFA0E80C5048BFD1
:1003D0000CC05DF804EB890028BF40F8042B08BF6F
:1003E000704748BF20F8022B11F0804F18BF00F86B
:1003F000012B7047704770477047754600F02CF826
:10040000AE4605006946534620F00700854618B001
:1004100020B5FFF73FFFBDE820404FF000064FF04A
:1004200000074FF000084FF0000B21F00701AC4629
:10043000ACE8C009ACE8C009ACE8C009ACE8C00948
:100440008D46704710B50446AFF300802046BDE8E6
:100450001040FFF70ABF0000004870470401002069
:1004600001491820ABBEFEE7260002007047FEE7F8
:10047000014800F076B9000054000020014800F067
:1004800070B900005400002000B58BB00121099123
:10049000002007900891019002900390049006902C
:1004A000059001A9054800F0C7F8044800F04BFB8F
:1004B0000221024800F034F80BB000BD54000020C7
:1004C00030B587B0002400210091019102900422F0
:1004D00003920491059201218DF818100A49000A2F
:1004E00001EBC00506E0192001F0BCFA641CE4B27F
:1004F0000A2C07D06B4601A904486A6800F022F86C
:100500000028F0D107B030BD1400002054000020B6
:10051000704772B6FEE72DED020B009802B07047EF
:1005200090F82020012A07D0022A05D0416A41F420
:100530008021416201207047006842690A4342619C
:1005400000207047F0B590F820500468A468012D91
:1005500007D0022D05D0416A41F48021416201207B
:10056000F0BD04F0806504F00066354301D1E5007C
:100570005BD5C4F30164022C05D9416A41F4000142
:1005800041620120F0BD0125A5401D608B684FF43C
:10059000C0759BB1CE6805EB041733434E6843EA40
:1005A000C6030668F3514FF4C273076803EB0413E4
:1005B0000E69FE50097D012909D00DE00E88CB6837
:1005C00005EB041743EA46530668F351EBE701686D
:1005D000CE5846F48076CE501179D379567941EAD7
:1005E000036193791B0443EA062319434FF4C6764B
:1005F000036806EB041699511178D37841EA036138
:10060000937852781B0443EA022211434FF4C473D7
:10061000026803EB0413D150006805EB0411425843
:1006200042F0010242500020F0BD416A41F4001145
:1006300041620120F0BD000010B5026890F8203042
:10064000012B07D0022B05D0416A41F48021416281
:10065000012010BD404C4148A24200D00246D2F8D1
:10066000003243F00103C2F8003282420CD1D2F8CA
:10067000000220F47C50C2F80002D2F800024B6A5B
:1006800040EA0320C2F80002087D00F01F030120A9
:100690009840D2F81C328343C2F81C32CB69B3B9FC
:1006A000D2F80C328343C2F80C328C894B6864F365
:1006B0001F434C6902EBC404C4F840320C890B6838
:1006C00064F31F434C6902EBC404C4F84432CB69A1
:1006D000012B16D1D2F80C320343C2F80C320C882D
:1006E0004B6864F31F434C6902EBC404C4F8403206
:1006F0000C89CB6864F31F434C6902EBC404C4F853
:1007000044328B697BB1D2F804320343C2F804321D
:100710000B6973B1D2F814320343C2F81432096A78
:1007200001290CD010E0D2F804328343C2F804321D
:10073000EEE7D2F814328343C2F81432EFE7D2F86E
:100740001C120143C2F81C12D2F8000220F0010072
:10075000C2F80002002010BD006C004000640040A0
:1007600070472DE9F05F0546002428684669D0F8F7
:1007700004908768D0F80CA0D0F810B0D0F818809A
:10078000F10748D0F90714D001218160B80703D5DB
:10079000284600F005FA0CE0780702D54FF4006413
:1007A00007E0380702D54FF4805402E0284600F0F5
:1007B000F6F9F80516D529684FF480708860B805F9
:1007C00003D5284600F0EEF90CE0780502D544F494
:1007D000005407E0380502D544F4804402E028467E
:1007E00000F0DFF9F80316D529684FF480308860EF
:1007F000B80303D5284600F0D7F90CE0780302D5FA
:1008000044F4004407E0380302D544F4803402E0A5
:10081000284600F0C8F9300707D55FEACA6004D55A
:1008200044F4007429681020C86070074FF008076E
:1008300007D55FEA0A7004D52868C760284600F02B
:100840007DF9B00706D52868C068800702D0284621
:1008500000F075F9700607D55FEACB6004D544F463
:100860008064296810200861B00607D55FEA0B7024
:1008700004D528680761284600F062F9F00606D51D
:1008800028680069800702D0284600F05AF9B003B2
:1008900008D55FEAC96005D5296810204860284658
:1008A00000F050F9F00307D55FEA097004D5286815
:1008B0004760284600F079F9300446D55FEA497070
:1008C00040D5F00504D55FEAC87001D044F00104BA
:1008D000B00504D55FEA887001D544F002047005C4
:1008E00004D55FEA487001D544F00404300529D5E9
:1008F00018F0700F26D008F07000402815D006DCE4
:10090000102809D020280AD0302816D10AE0502813
:100910000ED0602811D10EE044F008040DE044F040
:1009200010040AE044F0200407E044F0400404E02E
:1009300044F0800401E044F480742868816921F067
:1009400070018161296804204860002C05D0686A24
:10095000204368622846FFF703FFBDE8F09F70B5AB
:100960000446002C03D094F8200010B104E00120CC
:1009700070BD204600F09CF82068016841F001013C
:10098000016000F0FDF9054605260CE000F0F8F9DD
:10099000401B0A2807D9606A40F40030606284F87E
:1009A0002060012070BD20684068C007EED020683C
:1009B000016821F00201016000F0E2F905460CE057
:1009C00000F0DEF9401B0A2807D9606A40F40030C5
:1009D000606284F82060012070BD20684068800754
:1009E000EED4207E01283FD02068016821F08001EC
:1009F0000160607E01283DD02068016821F040013F
:100A00000160A07E01283BD02068016821F0200110
:100A10000160E07E012839D02068016841F01001B2
:100A20000160207F012837D02068016821F008018B
:100A30000160607F012835D02068016821F0040141
:100A40000160D4E902010843D4E9041211430843C8
:100A50006168491E08432168C86100206062012066
:100A600084F82000002070BD2068016841F08001FA
:100A70000160BEE72068016841F040010160C0E705
:100A80002068016841F020010160C2E72068016828
:100A900021F010010160C4E72068016841F00801FD
:100AA0000160C6E72068016841F004010160C8E701
:100AB00010B586B00446142101A8FFF774FC1C4948
:100AC0002068884231D100211A48026842F0007241
:100AD0000260006800F0007000901648103802684C
:100AE00042F001020260006800F0010000904FF443
:100AF000C05001900220029003910320049009202D
:100B0000059001A90C4800F051F8002201211320A2
:100B100000F0A8F9132000F097F900220121142019
:100B200000F0A0F9142000F08FF906B010BD00000D
:100B300000640040403802400000024070477047A7
:100B400070477047704770B5044694F8200001283C
:100B500005D0606A40F400206062012070BD022070
:100B600084F820002068016821F00101016000F094
:100B700007F905460DE000F003F9401B0A2808D9E3
:100B8000606A40F400306062052084F82000012093
:100B900070BD20684068C007EDD1606270BD7047CD
:100BA0007047704770477047704770472DE9F84F9E
:100BB0000022DFF894914FF0010809F1040A03279D
:100BC0004FF00F0C0AF1040B08FA02F50B682B40EA
:100BD000AB426ED10C7904F00304012C01D0022C3D
:100BE00015D18668540007FA04FE26EA0E06D1F8ED
:100BF0000CE00EFA04FE4EEA060EC0F808E0446867
:100C0000AC430D79C5F300159540254345600C793B
:100C1000E443A40708D0C568540007FA04F6B543B6
:100C20008E68A6402E43C6600C7904F00304022CA3
:100C300011D1D40800EB8406356A5407E40E0CFA8F
:100C400004FE25EA0E05D1F810E00EFA04FE4EEA85
:100C5000050EC6F820E00568540007FA04F6B5430F
:100C60000E7906F00306A6402E4306604C6814F485
:100C7000403F62D0354C256845F4804525602468A6
:100C800004F480440094324C22F003052E19D6F867
:100C9000085894074FEA147E0CFA0EF4A5432D4C25
:100CA000A04201D100241FE02B4CA04202D101241C
:100CB0001AE042E0294CA04201D1022414E0284C61
:100CC000A04201D103240FE0264CA04201D104240C
:100CD0000AE0254CA04201D1052405E0234CA042A6
:100CE00001D1062400E0072404FA0EF42C43C6F8D0
:100CF0000848D9F800409C434D68ED0300D51C43DB
:100D0000C9F80040DAF800409C434D68AD0300D5B7
:100D10001C43CAF80040DBF800409C434D68ED02DC
:100D200000D51C43CBF80040074D0C352C689C4384
:100D30004E68B60200D51C432C60521C102AFFF4EA
:100D400043AFBDE8F88F0000003C0140443802404A
:100D50000030014000000240000402400008024050
:100D6000000C024000100240001402400018024033
:100D7000002A01D081617047090481617047000039
:100D80000148806870470000000000200248816828
:100D900002781144816070470000002010B50B48B4
:100DA000016841F400710160016841F480610160F3
:100DB000016841F480710160032000F073F80220A3
:100DC00000F006F800F026F8002010BD003C0240BC
:100DD00070B504460D4D4FF47A712878B1FBF0F0F0
:100DE0000B490968B1FBF0F000F03EFB08B10120AF
:100DF00070BD102C07D200222146501E00F032F8A0
:100E00006C60002070BD012070BD0000000000205B
:100E10000C00002082B00B48016841F48041016061
:100E2000006800F4804001900648001F016841F00E
:100E300080510160006800F080500190052002B0F0
:100E400000F030B844380240002809DB00F01F02EF
:100E5000012191404009800000F1E020C0F800111C
:100E600070470000F0B40D460D4B1B68C3F302231E
:100E7000C3F10704042C00D90424191D072901D249
:100E8000002300E0DB1E012606FA04F1491E29407A
:100E900099409E40761E16403143F0BC00F0CBBD19
:100EA0000CED00E000F00701054A10684FF6FF0363
:100EB000184040EA012003490843106070470000D1
:100EC0000CED00E00000FA052DE9F04704460D4660
:100ED000002C13D0DFF82891D9F80000EFB200F011
:100EE0000700A8420CD289F80070D9F8000000F081
:100EF0000700A84204D00120BDE8F0870120FBE7ED
:100F00002068404E810712D5400703D5306840F471
:100F1000E05030602078000703D5306840F460402E
:100F200030603068A16820F0F0000843306020781D
:100F3000C00731D0334960680839012808D0022839
:100F40000BD0032809D0096889070BD40120D3E707
:100F50000968890306D40120CEE70968890101D414
:100F60000120C9E7316821F0030101433160FFF737
:100F700007FF804641F2883A07E0FFF701FFA0EB48
:100F80000800504501D90320B6E73068616800F0D9
:100F90000C00B0EB810FF0D1D9F8000000F0070091
:100FA000A84209D989F80070D9F8000000F00700BC
:100FB000A84201D001209FE72078400705D530687E
:100FC000E16820F4E050084330602078000706D53F
:100FD0003068216920F4604040EAC100306000F0D0
:100FE00019F83168084AC1F30311515CC840074938
:100FF000086007480068FFF7EBFE00207CE7000070
:10100000003C0240083802400E1B00080C00002083
:101010000400002010B51748006810F00C011648B5
:1010200016D04310042912D0082911D1114C241FC5
:10103000216801F03F02216849020AD52068C0F307
:101040008810A0FB03010023FFF736F909E01846DA
:1010500010BD21680023C1F38811A1FB0001FFF737
:101060002BF92168C1F30141491C4900B0FBF1F0A3
:1010700010BD0000083802400024F4002DE9F84FAC
:101080000446002C13D02078DFF8CC83C007A8F1E9
:10109000040556D008F104000168C1F3810101295B
:1010A0000CD00068C0F38100022803D00DE00120BD
:1010B000BDE8F88FD8F80000400206D52868800304
:1010C0003FD5606870BB0120F2E76068B0F5803FF3
:1010D00010D0B0F5A02F12D0286820F480302860FE
:1010E000286820F4802028606068E0B1FFF748FE9F
:1010F000064614E0286840F480302860F4E7286849
:1011000040F480202860286840F480302860EBE7B5
:10111000FFF736FE801B642801D90320C8E7286842
:101120008003F5D50DE0FFF72BFE064606E0FFF73E
:1011300027FE801B642801D90320B9E728688003B3
:10114000F5D42078C54F80074FF0000A48D5C24833
:10115000001D016811F00C0F08D00068C0F3810079
:10116000022813D1D8F8000040020FD42868800765
:1011700004D5E068012801D0012099E72868216999
:1011800020F0F80040EAC100286029E0E068B8B12A
:1011900001203860FFF7F4FD064606E0FFF7F0FD9A
:1011A000801B022801D9032082E728688007F5D533
:1011B0002868216920F0F80040EAC10028600FE0AB
:1011C000C7F800A0FFF7DCFD064606E0FFF7D8FDF4
:1011D000801B022801D903206AE728688007F5D41C
:1011E0002078000729D5DFF870929D48616909F1E0
:1011F000700989B101210160FFF7C2FD064606E0D2
:10120000FFF7BEFD801B022801D9032050E7D9F863
:1012100000008007F4D510E0C0F800A0FFF7B0FD93
:10122000064606E0FFF7ACFD801B022801D903202B
:101230003EE7D9F800008007F4D4207840076ED547
:10124000002685483C300068C0000AD482483C3003
:10125000016841F080510160006800F0805000900A
:101260000126DFF800B2DBF80000C00515D4DBF87A
:10127000000040F48070CBF80000FFF781FD81464C
:1012800007E0FFF77DFDA0EB0900022801D903204C
:101290000EE7DBF80000C005F3D5DFF8BCB1A068AD
:1012A0000BF16C0B012813D0052818D0DBF80000D7
:1012B00020F00100CBF80000DBF8000020F0040073
:1012C000CBF80000A06830B3FFF75AFD81461DE05F
:1012D000DBF8000040F00100CBF80000F2E7DBF89B
:1012E000000040F00400CBF80000DBF8000040F004
:1012F0000100CBF80000E5E7FFF742FDA0EB090194
:1013000041F28830814201D90320D1E6DBF80000A8
:101310008007F1D512E0FFF733FD81460AE015E0C2
:10132000FFF72EFDA0EB090141F28830814201D97F
:101330000320BDE6DBF800008007F1D4012E05D1C3
:1013400045483C30016821F080510160A069D0B36C
:101350004149091D09684FF0FF39C1F38101022994
:1013600048D0022805D0C7F860A0FFF709FD044661
:101370003CE0C7F860A0FFF703FD064606E0FFF774
:10138000FFFC801B022801D9032091E62868800118
:10139000F5D454F81C0F6168E2680843A16809EBB2
:1013A0005202890141EA02410843217C40EA01607E
:1013B000217D40EA0170C8F8000001203866FFF77F
:1013C000DFFC044607E044E0FFF7DAFC001B0228DC
:1013D00001D903206CE628688001F5D539E0FFF7D4
:1013E000CFFC001B022801D9032061E62868800198
:1013F000F5D42EE001282AD0D8F80000E26900F4E4
:101400008001914221D1226A00F03F0191421CD11A
:1014100047F6C071626A0140B1EB821F15D1A26A22
:1014200000F4403109EB5202B1EB024F0DD194F8B8
:101430002C2000F07061B1EB026F06D194F83010EF
:1014400000F0E040B0EB017F03D0012030E6012046
:101450002EE600202CE6000004380240000047423F
:10146000800E47420070004010B5401EB0F1807FF2
:1014700001D3012010BD4FF0E02460610F216017FF
:1014800000F0D9FA0020A06107202061002010BDE3
:101490007047704770B590F83C20012A31D0012682
:1014A00080F83C60022280F83D200268546893680E
:1014B00024F070050C682C435460134C0268A2425F
:1014C00014D0B2F1804F11D0104CA2420ED0104C6B
:1014D000A2420BD00F4CA24208D00F4CA24205D022
:1014E0000E4CA24202D00E4CA24204D123F0800343
:1014F0004968194391603C3046700021017000201A
:1015000070BD022070BD00000000014000040040DA
:1015100000080040000C0040000401400040014071
:101520000018004010B50446002C03D094F83D008C
:1015300010B107E0012010BD002084F83C002046D7
:1015400000F016F8022084F83D00211D206800F00C
:101550000BFA01203D3460726070A070E070207161
:101560006071A071E07120722070002010BD000039
:1015700008B500680B49884212D10B48016841F058
:1015800020010160006800F0200000900122114657
:101590003720FFF767FCBDE808403720FFF754BC51
:1015A00008BD0000001400404038024090F83D1093
:1015B000012901D001207047022180F83D10016807
:1015C000CA6842F00102CA6000681449884214D017
:1015D000B0F1804F11D0124988420ED01149884293
:1015E0000BD01149884208D01049884205D01049D3
:1015F000884202D00F49884209D1816801F0070171
:10160000062908D0016841F00101016003E001688A
:1016100041F001010160002070470000000001401E
:101620000004004000080040000C0040000401409D
:101630000040014000180040704770B50446206823
:1016400001694FF00005C943890716D4C168C94331
:10165000890712D4E91E0161012020772068806982
:10166000800703D02046FFF7E7FF05E0204600F0A3
:101670009BF8204600F099F8257720680169C94356
:10168000490718D4C168C943490714D46FF004014D
:101690000161022020772068806910F4407F03D028
:1016A0002046FFF7C9FF05E0204600F07DF8204600
:1016B00000F07BF8257720680169C943090717D432
:1016C000C168C943090713D46FF008010161042000
:1016D00020772068C069800703D02046FFF7ACFF61
:1016E00005E0204600F060F8204600F05EF825771F
:1016F00020680169C943C90618D4C168C943C9062D
:1017000014D46FF010010161082020772068C069AF
:1017100010F4407F03D02046FFF78EFF05E02046FF
:1017200000F042F8204600F040F825772068016973
:10173000C943C90708D1C168C943C90704D1891E73
:101740000161204600F032F820680169C9430906AA
:1017500009D4C168C943090605D46FF0800101614D
:101760002046FFF795FE20680169C943490609D460
:10177000C168C943490605D46FF0400101612046A4
:1017800000F015F820680169C94389060BD4C168C7
:10179000C943890607D46FF0200101612046BDE8E6
:1017A0007040FFF776BE70BD704770477047704756
:1017B000FEE7000010B50F480D4901600A214160A5
:1017C00000218160C1604FF48032026112014261E8
:1017D000017641768176C17601774177FFF7BFF8D0
:1017E000002803D0BDE81040FEF793BE10BD0000F6
:1017F000006400405400002070B586B0142101A898
:10180000FEF7D1FD00251648016841F00401016092
:10181000016801F004010091016841F0800101605C
:10182000016801F080010091016841F0010101604F
:10183000006800F0010000900A4E4FF400540022AE
:1018400021463046FFF794FA019401210291039555
:10185000049501A93046FFF7A9F906B070BD000054
:1018600030380240000802401CB500240094019466
:101870000E480D49016063214160846040F2E73108
:10188000C16080218161FFF74DFE08B1FEF741FE86
:1018900010200090019469460448FFF7FBFD0028E2
:1018A00001D0FEF736FE1CBD001400407C00002075
:1018B000FEE7FEE770477047FFF768BA30B593B0B0
:1018C000342106A8FEF76FFD142101A8FEF76BFD79
:1018D00000251C48016841F080510160006800F05B
:1018E000805000901848016841F440410160006850
:1018F00000F440400090012006900004079002246C
:101900000C9480010D9004200E9064200F90109490
:101910001194129406A8FFF7B1FB08B1FEF7F9FD88
:101920000F200190029403954FF480500490059588
:10193000032101A8FFF7C8FA002801D0FEF7E9FD4E
:1019400013B030BD403802400070004002480168CA
:1019500041F470010160704788ED00E00148FFF735
:101960006CBE00007C0000202DE9F0410268264D8D
:10197000264E274FDFF89CC0274B4FF08048A842E7
:1019800009D0404507D0B04205D0B84203D06045E9
:1019900001D0984203D122F070044A682243A84241
:1019A0001BD0404519D0B04217D0B84215D0604581
:1019B00013D0984211D0194CA0420ED0184CA0421E
:1019C0000BD0184CA04208D0174CA04205D0174CA1
:1019D000A04202D0164CA04203D122F44074CA683F
:1019E00022434C6922F08002224302608A68C2626C
:1019F0000A688262A84201D0984201D10969016354
:101A000001214161BDE8F081000001400004004077
:101A100000080040000C004000040140004001406C
:101A2000004401400048014000180040001C0040F4
:101A300000200040FEE70907090E002804DB00F142
:101A4000E02080F80014704700F00F0000F1E02063
:101A500080F8141D704700000149086070470000BD
:101A60001000002070B500214FF0E0256C690A4A93
:101A700012685043AB69AA699A42FCD003D2A3EB27
:101A80000203194403E0A4EB02063344194413464D
:101A90008142F0D370BD000010000020FFF77EF9F6
:101AA000FFF70CFFFFF7A8FEFFF784FEFFF7DCFE51
:101AB0006420FFF7D1FF0548FFF778FDFEF7E4FC4F
:101AC0009FED030A032000F005F8FEE77C000020EC
:101AD0000000000010B50146092040EA0122FEF78F
:101AE0001AFD074B040E03EBC1010C71030C4B7183
:101AF000030A8B71C871BDE810401046FEF7E0BCC8
:101B0000C40000204FF04070E1EE100A7047000062
:101B1000000000000000010203040607080900009D
:101B2000401B0008000000205400000014020008C0
:101B3000941B000854000020140700003002000825
:101B40000100000010000000000000000024F4006C
:101B50000000000001000000C8000020010100009A
:101B6000D000002001020000D80000200103000086
:101B7000E000002001040000E80000200105000052
:101B8000F000002001060000F8000020010700001E
:041B90000001002030
:04000005080001D915
:00000001FF
