:030000000213C721
:0C13C700787FE4F6D8FD75811A020E1341
:1008FB00323031342F30352F303100415343494999
:10090B003A00434F44453A00FF0101010101010147
:10091B0001010101E1E1616161616161E1E10101FC
:10092B000101010161616161616161E1E1E101016C
:10093B00E1E1616161616161E1E1010181818181DC
:10094B00818181818181E1E181818101010101014C
:10095B0001010101010101FFFF0000000000000087
:10096B0000000000FFFF000000000000FFFF000080
:10097B000000000000000000E0F83E0F0300000044
:10098B00FFFF181818181818FFFF000001011DFDB4
:10099B00F9C101010101FFFF01010100000000008D
:1009AB0000000000000000FFFF000000000000003E
:1009BB0080808080878786868686060687878080EC
:1009CB0086868080808004070701000000000000FD
:1009DB00070706060606868607070080808080804C
:1009EB0080808C8C0C0C8F8F8080808080808080AE
:1009FB0000000000000000FFFF00000000000000EE
:100A0B00FFFF616161616161FFFF0000FFFF010199
:100A1B0001010101FFFF000010103070E0C0C0E0C9
:100A2B00703010100000FFFF0000E0E161616161B8
:100A3B0061617F7F0000FFFF616161616161FFFFA9
:100A4B0000000000000000FFFF000000000000009D
:100A5B001F1F1818181818181F1F00001F1F181811
:100A6B00181818181F1F000018181C0E070303076F
:100A7B000E1C181808001F1F00001F1F181818182D
:100A8B001818180000001F1F1818181818181F1F07
:100A9B0000000000000000FFFF0000000000747465
:100AAB00545454545456565454545454747400005F
:100ABB007474545454545456565454545454747467
:100ACB00000044444444FE44440042627E0202421D
:100ADB007E7E0000129292005454545454547E540F
:100AEB0054545454000000FFFF0000000000FFFFAF
:100AFB000101393925252525B9B98181FFFF000071
:100B0B009F9F8181F9F905050505F9F981819F9F62
:100B1B000000FFFF8080FF84848080BFA1A1A1A182
:100B2B00BFBF0000C0FF030000FFFF25252525A543
:100B3B00A5A5FFFF000000FFFF0000000000000064
:100B4B00000000000000000000000000000000009A
:100B5B00000000000000000000000000000000008A
:100B6B00000000000000000000000000000000007A
:100B7B00000000000000000000000000000000006A
:100B8B0000000000000000FFFF000000000000005C
:100B9B000000000000000000C0F0F0F0F0F0F0F0FA
:100BAB00F0F0F0F0C00000000000000000000000BA
:100BBB0000000000000206060E0E1E3EFEFEFCFCB0
:100BCB00BC3C7878F0F0E0E0C08000000000000052
:100BDB0000000000000000FFFF000000000000000C
:100BEB0000000000C0F0FCFFFFFFFFFFFFFFFFFF57
:100BFB00FFFFFFFFFFFFFCF8E0000000000000001C
:100C0B000000000000000000000000000001071FB2
:100C1B00FFFFF880000103070F1F7FFEFCF0E08051
:100C2B0000000000000000FFFF00000000000000BB
:100C3B000000000000030F1F7FFFFFFFFFFFFFFF00
:100C4B00FFFFFFFFFF3F0F0300000000000000004D
:100C5B00000000000000000000000000000000C0C9
:100C6B00FFFFFF3F0000000000000003FFFFFFFF3E
:100C7B00F0000000000000FFFF000000000000007B
:100C8B000000000000000000000101010101010152
:100C9B000101010100000000000000000000000045
:100CAB0000000000000000000080C0E0F0F8FE7FB4
:100CBB003F0F030000000000000080E0FFFFFF7FFC
:100CCB0007000000000000FFFF0000000000000014
:100CDB000000000000000000000000000000000009
:100CEB000000000000040C1C3C7CF8F8F8F8F8B885
:100CFB0038383C3C1C1E1E0F0F0F0707030100006A
:100D0B00008080C0C0E0F0F8FC7E3F1F0F070100A1
:100D1B0000000000000000FFFF00000000000000CA
:100D2B0000000000000000000000000000000000B8
:100D3B000000000000000000000000010103030799
:100D4B00070F0F0E1E1E1E1E1E1E1E1E1E1E0F0F1B
:100D5B000F0F070703030101000000000000000054
:100D6B0000000000000000FFFF0000001828F8281A
:100D7B0018008000C000E0000000000000F8F4EC58
:100D8B001CBCBCBCBCBCBCBC1CECF4F80000000024
:100D9B00000000002030F8F830208080F8F88080C8
:100DAB00000000E020F808E8E808E8E808E8E808B0
:100DBB00E8E808F8000000FFFF80808080808380D7
:100DCB0083808380838083808080808080838586FE
:100DDB0087878787878787878786858380808080BB
:100DEB0080808080808083838080808183838180EA
:100DFB0080808081818382828282828282828282CF
:080E0B0082828283808080FF57
:100E1300750820121046E4FF121375E4FF121280C6
:100E2300750C80750DFF750E09750F137B50E4FD6E
:100E3300FF1211D17FF47E0112135B121304750CA0
:100E430010E4FBFD7F1012115F750C107B01E4FDB4
:100E53007F2012115F750C107B02E4FD7F301211AD
:100E63005F750C107B037D027F0812115F750C10F8
:100E73007B047D027F1812115F750C107B057D02C8
:100E83007F2812115F750C107B067D027F381211CB
:100E93005F7BFF7A0879FB750E107D06E4FF121263
:100EA300367BFF7A097906750E107D08E4FF12126E
:100EB300367BFF7A09790D750E107D0AE4FF121255
:100EC30036751610AB087D087F30120EFB0508E55A
:100ED30008D3947E4003750820E508FB7A00750D5E
:100EE30003750E107D0A7F281210D57FF47E011240
:080EF300135B121304020E232D
:100003000000000000000000002F000000000700B7
:10001300070000147F147F1400242A7F2A12006231
:1000230064081323003649552250000005030000DD
:1000330000001C224100000041221C000014083E65
:1000430008140008083E0808000000A0600000082B
:10005300080808080000606000000020100804027F
:10006300003E5149453E0000427F4000004261513D
:100073004946002141454B31001814127F100027D7
:1000830045454539003C4A4949300001710905039A
:1000930000364949493600064949291E00003636CB
:1000A300000000005636000000081422410000142E
:1000B300141414140000412214080002015109060B
:1000C30000324959513E007C1211127C007F49498C
:1000D3004936003E41414122007F4141221C007FBD
:1000E30049494941007F09090901003E4149497ACB
:1000F300007F0808087F0000417F41000020404145
:100103003F01007F08142241007F40404040007FB0
:10011300020C027F007F0408107F003E4141413EF4
:10012300007F09090906003E4151215E007F09193C
:1001330029460046494949310001017F0101003F39
:100143004040403F001F2040201F003F4038403FB9
:10015300006314081463000708700807006151491D
:10016300454300007F41410000552A552A550000B0
:1001730041417F000004020102040040404040402E
:10018300000001020400002054545478007F4844C6
:10019300443800384444442000384444487F0038FD
:1001A3005454541800087E0901020018A4A4A47C26
:1001B300007F080404780000447D400000408084F0
:1001C3007D00007F102844000000417F4000007C38
:1001D30004180478007C0804047800384444443844
:1001E30000FC242424180018242418FC007C080490
:1001F300040800485454542000043F444020003C69
:100203004040207C001C2040201C003C4030403CEF
:10021300004428102844001CA0A0A07C004464547F
:100223004C441414141414140000000000000000C3
:100233000000000000000000000000F800000000C3
:10024300000000333000000000100C06100C060004
:10025300000000000000000040C07840C07840006B
:10026300043F04043F040400007088FC08300000CD
:10027300001820FF211E0000F008F000E018000025
:1002830000211C031E211E0000F0088870000000DE
:100293001E2123241927211010160E000000000030
:1002A3000000000000000000000000E0180402004D
:1002B300000000071820400000020418E0000000BE
:1002C3000040201807000000404080F080404000BC
:1002D3000202010F01020200000000F00000000012
:1002E3000101011F010101000000000000000000E6
:1002F30080B070000000000000000000000000005B
:1003030000010101010101010000000000000000E3
:10031300003030000000000000000000806018047E
:10032300006018060100000000E010080810E0005B
:10033300000F102020100F00001010F80000000024
:100343000020203F2020000000700808088870006B
:1003530000302824222130000030088888483000EB
:100363000018202020110E000000C02010F800000B
:1003730000070424243F240000F8088888080800A4
:100383000019212020110E0000E0108888180000B9
:10039300000F112020110E0000380808C83808008B
:1003A3000000003F0000000000708808088870000B
:1003B300001C222121221C0000E010080810E0008C
:1003C3000000312222110F00000000C0C000000015
:1003D300000000303000000000000080000000003A
:1003E3000000806000000000000080402010080032
:1003F30000010204081020004040404040404000FB
:1004030004040404040404000008102040800000D5
:100413000020100804020100007048080808F000DA
:100423000000003036010000C030C828E810E000AA
:100433000718272423140B000000C038E000000035
:10044300203C23020227382008F88888887000009F
:10045300203F202020110E00C03008080808380073
:10046300071820202010080008F808080810E000EA
:10047300203F202020100F0008F88888E80810008B
:10048300203F20202320180008F88888E80810005F
:10049300203F200003000000C03008080838000097
:1004A30007182020221E020008F808000008F80898
:1004B300203F210101213F20000808F8080800001F
:1004C3000020203F2020000000000808F808080052
:1004D300C08080807F00000008F888C028180800CA
:1004E300203F20012638200008F808000000000003
:1004F300203F20202020300008F8F800F8F80800FA
:10050300203F003F003F200008F830C00008F808F3
:10051300203F200007183F00E01008080810E00003
:100523000F10202020100F0008F808080808F0001A
:10053300203F210101010000E01008080810E0003D
:100543000F18242438504F0008F8888888887000D2
:10055300203F2000030C3020007088080808380072
:100563000038202121221C00180808F80808180068
:100573000000203F2000000008F808000008F808E9
:10058300001F202020201F000878880000C838089A
:10059300000007380E010000F80800F80008F80012
:1005A300033C0700073C03000818688080681808AC
:1005B30020302C03032C30200838C800C83808002A
:1005C3000000203F2000000010080808C838080079
:1005D3002038262120201800000000FE020202001D
:1005E3000000007F40404000000C30C000000000CD
:1005F300000000010638C00000020202FE000000F5
:10060300004040407F00000000000402020204009A
:1006130000000000000000000000000000000000D7
:1006230080808080808080800002020400000000BF
:1006330000000000000000000000808080800000B7
:100643000019242222223F2008F8008080000000A5
:10065300003F112020110E00000000808080000068
:10066300000E112020201100000000808088F80077
:10067300000E112020103F200000808080800000A9
:10068300001F222222221300008080F0888888180D
:100693000020203F20200000000080808080800018
:1006A300006B94949493600008F8008080800000AD
:1006B300203F210000203F20008098980000000088
:1006C3000020203F202000000000008098980000B8
:1006D30000C08080807F000008F8000080808000D8
:1006E300203F24022D302000000808F800000000FD
:1006F3000020203F202000008080808080808000B8
:10070300203F20003F20003F808000808080000049
:10071300203F210000203F200000808080800000D7
:10072300001F202020201F00808000808000000008
:1007330080FFA12020110E00000000808080800037
:10074300000E112020A0FF80808080008080800028
:1007530020203F2120000100000080808080800055
:100763000033242424241900008080E080800000CA
:100773000000001F20200000808000000080800017
:10078300001F202020103F20808080000080808078
:1007930000010E3008060100808000800080808008
:1007A3000F300C030C300F0000808000808080002D
:1007B3000020312E0E312000808080000080808058
:1007C30080818E7018060100008080808080800008
:1007D3000021302C2221300000000000807C020226
:1007E30000000000003F404000000000FF00000048
:1007F30000000000FF0000000002027C80000000F7
:100803000040403F00000000000601010202040412
:1008130000000000000000000000F010101010FFA6
:1008230010101010F000000000000F04040404FF77
:10083300040404040F0000004040405F5555557503
:100843005555555F404040000040200F09498979C4
:100853000909090F2040000000FE02424ACA4A4A21
:10086300CA4A4A4202FE000000FF40504C43404047
:100873004F50505C40FF00000000F888888888FFD4
:1008830088888888F800000000001F080808087F8F
:10089300888888889F80F00080828282828282E2B8
:1008A300A2928A8682808000000000000040807F40
:1008B3000000000000000000101010FF10900888D6
:1008C3008888FF88888808000444827F01808040EC
:1008D300432C1028468180000010101010D030FFE8
:1008E30030D0121C1010000010080402010000FF99
:0808F3000000010204081000DE
:10135B00EF4E60157D087C07ED1DAA0470011C4A39
:09136B0070F6EF1F70EA1E80E726
:011374002256
:101375008F09EF7006FD7FA61212D3E5096401708F
:0813850006FD7FA71212D3221E
:101280008F09EF701BFD7FD31212D3E4FD7F68122C
:1012900012D3E4FD7FC01212D3E4FD7FA01212D35B
:1012A000E5096401701BFD7FD31212D3E4FD7F18A2
:1012B0001212D3E4FD7FC81212D3E4FD7FA11212F3
:0212C000D32237
:1012C200F583E5822BF582E5833AF583E493FF7D8E
:0112D200011A
:1012D300ED6004D2938002C293C294E4FEEEC39401
:1012E30008748094805015C290EF30E704D2918047
:1012F30002C291D290EF25E0FF0E80E1D294D29307
:0113030022C7
:10133D00AC07ED24B0FFE4FD1212D3EC54F0C4540D
:0E134D000F4410FF1212D3EC540FFF0212D304
:1013A500E4FD7F8D1212D37F141212D37FAF021288
:0113B500D364
:1013B600E4FD7F8D1212D37F101212D37FAE02127C
:0113C600D353
:10130400E4FCECC3941074809480502CEC24B0FF63
:10131400E4FD1212D3E4FF1212D37F101212D3E4AD
:10132400FBEBC3945074809480500A7D01E4FF1257
:0813340012D30B80EC0C80CAFF
:01133C00228E
:060EFB008F138D14A90302
:100F0100E4F517E516C313F518E4FBFAE5166408D2
:100F11007007F519751A06802CE516131313541F63
:100F2100FF7E00E51654077C0060047D0180027D90
:100F310000ED2FFFEC3EFEE516C313FD7C00120F02
:100F4100DF8E198F1AE924E0F517AD14AF131213D0
:100F51003DE4FAFBC3EB951AEA95195053E518FDE8
:100F61007C00AF03AE02120FF1ED4C700FE5166479
:100F7100086009AD140514AF1312133DE51664089A
:100F8100701075F006E517A42403F582E5F034002E
:100F91008014E5166410701875F010E517A4242B61
:100FA100F582E5F034021212C20BBB00010A80A4E3
:010FB100221D
:04138D008F13A9050C
:101391007F017E00AD0119ED6009AD137C00120FD4
:0313A100DF80F1F9
:0113A4002226
:0810D5008F098D0A8A0B8B0CB8
:1010DD00E4F511F512E50E64087003751102E4F5DF
:1010ED000FE50FC3950D5069C3E50D950F14FD7FE9
:1010FD000A12138DAC0BAD0CCFCDCFCECCCE120FC3
:10110D00F17C007D0A120FF18D10E5127025E50DB1
:10111D0014FFE50FC39F501BE5107014E50EC313AC
:10112D002511850FF0A42509FF850E167B2080184B
:10113D00751201E50EC3132511850FF0A42509FFC6
:10114D00E5102430FB850E16AD0A120EFB050F803F
:01115D009001
:01115E00226E
:0A1236008F098D0A8B0B8A0C890DBD
:10124000E4F50FAB0BAA0CA90D850F827583001274
:101250000FB2602BAF0F050F8F82758300120FB294
:10126000FB850E16AD0AAF09120EFBE50E64087081
:0F1270000474068004E50EC3132509F50980C434
:01127F00224C
:06115F008F098D0A8B0BC5
:10116500E50C131313541FFF7E00E50C54077C0098
:1011750060047D0180027D00ED2FFFEC3EFEAD0C8D
:101185007C00120FDF8E0D8F0EE4FBFAC3EB950E7C
:10119500EA950D5036E50CFD7C00AF03AE02120F4B
:1011A500F1ED4C7009AD0A050AAF0912133DE50CC6
:1011B50064107017E50BC43354E0241BF582E43446
:0B11C500081212C20BBB00010A80C11F
:0111D00022FC
:0611D1008F098D0A8B0B53
:1011D700E4F510F511E50C131313541FFFE50C5438
:1011E7000760047E0180027E00EF2EF50CE4F51205
:1011F700E512C3950C5037E512250AFDAF09121306
:101207003DE4FCECC3950B5021AB0DAA0EA90F05CD
:1012170011E511AE107002051014F5828E83120FBE
:0E122700B2FF7D011212D30C80D9051280C2D5
:011235002296
:10104600C2927FC87E0012135BD292E4FD7FAE127D
:1010560012D3E4FF1212D37F101212D37F20121282
:10106600D37F811212D37F6F1212D37FA01212D3B5
:101076007FC01212D37FA41212D37FA61212D37F7F
:10108600D51212D37F911212D37FD91212D37F2297
:101096001212D37FDB1212D37F3F1212D37FA81214
:1010A60012D37F4F1212D37FD31212D37F6812123C
:1010B600D37FDC1212D3E4FF1212D37FAD1212D308
:0F10C6007F8A1212D3121304E4FD7FAF0212D3FC
:100FB200BB010CE58229F582E5833AF583E02250F4
:100FC20006E92582F8E622BBFE06E92582F8E2223E
:0D0FD200E58229F582E5833AF583E4932258
:100FDF00EF8DF0A4A8F0CF8CF0A428CE8DF0A42E26
:020FEF00FE22E0
:100FF100BC000BBE0029EF8DF084FFADF022E4CCE4
:10100100F875F008EF2FFFEE33FEEC33FCEE9DECAC
:10101100984005FCEE9DFE0FD5F0E9E4CEFD22EDF2
:10102100F8F5F0EE8420D21CFEADF075F008EF2F3C
:10103100FFED33FD4007985006D5F0F222C398FD2D
:051041000FD5F0EA22CA
:00000001FF
